:100000000C942A000C943F000C943F000C943F0089
:100010000C943F000C943F000C943F000C943F0064
:100020000C943F000C943F000C943F000C943F0054
:100030000C943F000C943F000C943F000C943F0044
:100040000C943F000C943F000C943F000C943F0034
:100050000C943F0011241FBECFE5D8E0DEBFCDBF1A
:1000600012E0A0E6B0E0E8E7F8E502C005900D92E6
:10007000AE32B107D9F70E94D61C0C943A2C0C94DE
:100080000000EF92FF920F931F937B018C0120E001
:1000900030E040E05FE40E94410388238CF0C80117
:1000A000B70120E030E040E05FE40E94B9010E9427
:1000B000A1039B01AC01205030404040504806C095
:1000C000C801B7010E94A1039B01AC01B901CA019B
:1000D0001F910F91FF90EF900895A0E0B0E0E3E74B
:1000E000F0E00C94032CDC012B01FA019C9192307E
:1000F00008F439C1EB018881823008F433C19430AF
:1001000069F4843009F02FC111969C91119789816F
:10011000981709F428C1A6EFB0E025C1843009F48E
:1001200021C18230A9F4923009F01DC19A01AD01BC
:1001300088E0EA010990AE01E90109929E0181502F
:10014000C1F7E201898111969C918923818308C1BD
:10015000923009F407C112962D903C901397EB0151
:100160008A819B811496AD90BD90CD90DC901797BD
:10017000EC80FD800E811F819101281B390BB90194
:1001800037FF04C066277727621B730B6032710547
:100190000CF061C0121613066CF537014801062EEB
:1001A00004C096948794779467940A94D2F721E0D8
:1001B00030E040E050E004C0220F331F441F551FC1
:1001C0006A95D2F721503040404050402E213F21C7
:1001D00040235123211531054105510521F021E02E
:1001E00030E040E050E079018A01E628F72808294C
:1001F00019293CC0232BD1F1260E371E35014601AB
:10020000062E04C096948794779467940A94D2F744
:1002100021E030E040E050E004C0220F331F441FD3
:10022000551F6A95D2F721503040404050402A2156
:100230003B214C215D21211531054105510521F05E
:1002400021E030E040E050E059016A01A628B728DB
:10025000C828D9280BC0821593052CF01C01AA24AC
:10026000BB24650103C0EE24FF24870111969C91F5
:10027000D20111968C91981709F445C0992339F051
:10028000A80197012A193B094C095D0906C0A6017E
:1002900095012E193F09400B510B57FD08C01182E3
:1002A0003382228224833583468357831DC081E0B5
:1002B00081833382228288279927DC01821B930B5A
:1002C000A40BB50B84839583A683B7830DC0220F3F
:1002D000331F441F551F24833583468357838281F0
:1002E000938101979383828324813581468157814D
:1002F000DA01C9010197A109B1098F5F9F4FAF4F83
:10030000BF4328F30BC0918333822282EA0CFB1C8B
:100310000C1D1D1DE482F5820683178383E0808314
:10032000248135814681578157FF1AC0C901AA2708
:1003300097FDA095BA2F81709070A070B0705695FF
:10034000479537952795822B932BA42BB52B848328
:100350009583A683B7838281938101969383828359
:10036000DF0101C0D201CD01CDB7DEB7E2E10C94CF
:100370001F2CA0E2B0E0EFEBF1E00C940F2C6983AE
:100380007A838B839C832D833E834F835887E9E058
:10039000EE2EF12CEC0EFD1ECE010196B7010E944F
:1003A000CA048E010F5E1F4FCE010596B8010E9450
:1003B000CA048A8991E089278A8BC701B801AE01F6
:1003C000475E5F4F0E946D000E94F503A096E6E035
:1003D0000C942B2CA0E2B0E0E0EFF1E00C940F2C99
:1003E00069837A838B839C832D833E834F835887D5
:1003F000F9E0EF2EF12CEC0EFD1ECE010196B701B7
:100400000E94CA048E010F5E1F4FCE010596B801EF
:100410000E94CA04C701B801AE01475E5F4F0E9447
:100420006D000E94F503A096E6E00C942B2CA0E250
:10043000B0E0EDE1F2E00C94032C69837A838B83C6
:100440009C832D833E834F835887CE010196BE0146
:10045000675F7F4F0E94CA04CE010596BE016F5EA2
:100460007F4F0E94CA049985923088F08989823032
:10047000C8F0943019F4823051F404C0843029F467
:10048000923081F486EF90E0C6C0923049F420E0CB
:100490009A858A89981321E02A87CE010996BBC0E4
:1004A000823049F420E09A858A89981321E02A8BCA
:1004B000CE014196B0C02D843E844F8458886D880B
:1004C0007E888F88988CEE24FF248701AA24BB2481
:1004D000650140E050E060E070E0E0E0F0E0C10184
:1004E00081709070892BE9F0E60CF71C081D191D2E
:1004F0009A01AB012A0D3B1D4C1D5D1D80E090E073
:10050000A0E0B0E0E614F7040805190520F481E046
:1005100090E0A0E0B0E0BA01A901480F591F6A1F9E
:100520007B1FAA0CBB1CCC1CDD1C97FE08C081E005
:1005300090E0A0E0B0E0A82AB92ACA2ADB2A3196C6
:10054000E032F10549F0660C771C881C991C569422
:10055000479437942794C3CFFA85EA892B893C893D
:100560008B859C85280F391F2E5F3F4F17C0CA010E
:1005700081709070892B61F016950795F794E79438
:1005800080E090E0A0E0B0E8E82AF92A0A2B1B2BD3
:1005900076956795579547952F5F3F4F77FDE7CF46
:1005A0000CC0440F551F661F771F17FD4160EE0CEE
:1005B000FF1C001F111F21503040403090E05907B0
:1005C00090E0690790E4790760F32B8F3C8FDB01A3
:1005D000CA018F779070A070B07080349105A1052A
:1005E000B10561F447FD0AC0E114F10401051105EC
:1005F00029F0405C5F4F6F4F7F4F40781A8EFE1797
:1006000011F081E08A8F4D8F5E8F6F8F78A383E02A
:10061000898FCE0149960E94F503A096E2E10C94E1
:100620001F2CA8E1B0E0E7E1F3E00C940F2C698304
:100630007A838B839C832D833E834F83588789E005
:10064000E82EF12CEC0EFD1ECE010196B7010E94A2
:10065000CA048E010F5E1F4FCE010596B8010E949D
:10066000CA048985823040F08989823028F0C70128
:10067000B8010E94420501C08FEF6896E6E00C9435
:100680002B2CA8E1B0E0E7E4F3E00C940F2C698395
:100690007A838B839C832D833E834F83588789E0A5
:1006A000E82EF12CEC0EFD1ECE010196B7010E9442
:1006B000CA048E010F5E1F4FCE010596B8010E943D
:1006C000CA048985823040F08989823028F0C701C8
:1006D000B8010E94420501C08FEF6896E6E00C94D5
:1006E0002B2CA8E1B0E0E7E7F3E00C940F2C698332
:1006F0007A838B839C832D833E834F83588789E045
:10070000E82EF12CEC0EFD1ECE010196B7010E94E1
:10071000CA048E010F5E1F4FCE010596B8010E94DC
:10072000CA048985823040F08989823028F0C70167
:10073000B8010E94420501C081E06896E6E00C9491
:100740002B2CACE0B0E0E7EAF3E00C94132C6983C7
:100750007A838B839C83CE010196BE016B5F7F4FB2
:100760000E94CA048D81823061F1823050F1843060
:1007700021F48E81882351F12EC02F81388537FDD9
:1007800020C06E812F3131051CF06623F9F023C0A3
:100790008EE190E0821B930B29853A854B855C8521
:1007A00004C056954795379527958A95D2F76623C5
:1007B000B1F050954095309521953F4F4F4F5F4F89
:1007C0000EC020E030E040E050E009C02FEF3FEFE6
:1007D0004FEF5FE704C020E030E040E050E8B901AF
:1007E000CA012C96E2E00C942F2CDF92EF92FF923C
:1007F0000F931F93FC01E480F58006811781D1805F
:100800008081823048F480E090E0A0E1B0E0E82A06
:10081000F92A0A2B1B2BA5C0843009F49FC0823013
:1008200021F4EE24FF24870105C0E114F104010541
:10083000110519F4E0E0F0E096C0628173819FEF4A
:10084000623879070CF05BC022E83FEF261B370BBC
:100850002A3131052CF020E030E040E050E02AC0A1
:10086000B801A701022E04C0769567955795479564
:100870000A94D2F781E090E0A0E0B0E004C0880FD5
:10088000991FAA1FBB1F2A95D2F70197A109B10989
:100890008E219F21A023B1230097A105B10521F04E
:1008A00081E090E0A0E0B0E09A01AB01282B392B69
:1008B0004A2B5B2BDA01C9018F779070A070B07062
:1008C00080349105A105B10539F427FF09C0205CEA
:1008D0003F4F4F4F5F4F04C0215C3F4F4F4F5F4F23
:1008E000E0E0F0E02030A0E03A07A0E04A07A0E412
:1008F0005A0710F0E1E0F0E079018A0127C0603882
:10090000710564F5FB01E158FF4FD801C7018F77EE
:100910009070A070B07080349105A105B10539F4D4
:10092000E7FE0DC080E490E0A0E0B0E004C08FE3FB
:1009300090E0A0E0B0E0E80EF91E0A1F1B1F17FFB1
:1009400005C016950795F794E794319687E01695BC
:100950000795F794E7948A95D1F705C0EE24FF2414
:100960008701EFEFF0E06E2F679566276795902F70
:100970009F77D794DD24D7948E2F8695492F462BC9
:10098000582F5D29B701CA011F910F91FF90EF9079
:10099000DF900895FC01DB01408151812281622FAB
:1009A0006F7770E0221F2227221F9381892F880FE3
:1009B000822B282F30E0991F9927991F11969C931D
:1009C000119721153105A9F54115510561057105ED
:1009D00011F482E037C082E89FEF13969C938E93C8
:1009E00012979A01AB0167E0220F331F441F551F76
:1009F0006A95D1F783E08C930DC0220F331F441FFB
:100A0000551F12968D919C911397019713969C9365
:100A10008E931297203080E0380780E0480780E40A
:100A2000580758F314962D933D934D935C93179765
:100A300008952F3F310579F4411551056105710580
:100A400019F484E08C93089564FF03C081E08C93D3
:100A500012C01C9210C02F57304013963C932E9317
:100A6000129783E08C9387E0440F551F661F771F12
:100A70008A95D1F7706414964D935D936D937C9332
:100A8000179708951F93DC01FB019C91923008F4A5
:100A900047C08081823008F443C0943051F41196ED
:100AA0001C91843099F58181682F70E0611B710978
:100AB0003FC0843021F0923031F48230B9F181812D
:100AC000882389F12DC011961C9111978230F1F085
:100AD00081811817D9F412962D913C911397828138
:100AE00093818217930794F028173907BCF0149666
:100AF0008D919D910D90BC91A02D248135814681D1
:100B00005781281739074A075B0718F4112341F06A
:100B10000AC082179307A407B50740F4112319F000
:100B200061E070E005C06FEF7FEF02C060E070E051
:100B3000CB011F910895DF93CF93CDB7DEB72F97E9
:100B40000FB6F894DEBF0FBECDBF8F8782E060E0A6
:100B500040E00E945B0A82E061E040E00E945B0AA4
:100B600080E06F850E946D0B82E062E041E00E94B0
:100B70005B0A80E090E0A0E0B0E48B879C87AD87C3
:100B8000BE876B857C858D859E8520E030E04AEFB1
:100B900054E40E941702DC01CB018F839887A98758
:100BA000BA876F81788589859A8520E030E040E8B2
:100BB0005FE30E94710388232CF481E090E09E8320
:100BC0008D833FC06F81788589859A8520E03FEFCE
:100BD0004FE757E40E94110318164CF56B857C858E
:100BE0008D859E8520E030E040E251E40E941702AE
:100BF000DC01CB01BC01CD010E944100DC01CB0135
:100C00009E838D830FC088EC90E09C838B838B81C7
:100C10009C810197F1F79C838B838D819E81019745
:100C20009E838D838D819E81009769F714C06F81AB
:100C3000788589859A850E944100DC01CB019E83DD
:100C40008D838D819E819A83898389819A81019781
:100C5000F1F79A83898382E062E040E00E945B0AB8
:100C60002F960FB6F894DEBF0FBECDBFCF91DF91A8
:100C70000895DF93CF93CDB7DEB72F970FB6F894D3
:100C8000DEBF0FBECDBF8F8782E060E041E00E94F3
:100C90005B0A82E061E040E00E945B0A80E06F85D1
:100CA0000E946D0B82E062E041E00E945B0A80E0FE
:100CB00090E0A0E0B0E48B879C87AD87BE876B8512
:100CC0007C858D859E8520E030E04AEF54E40E94CB
:100CD0001702DC01CB018F839887A987BA876F81C0
:100CE000788589859A8520E030E040E85FE30E94BE
:100CF000710388232CF481E090E09E838D833FC0B4
:100D00006F81788589859A8520E03FEF4FE757E42A
:100D10000E94110318164CF56B857C858D859E8588
:100D200020E030E040E251E40E941702DC01CB01F8
:100D3000BC01CD010E944100DC01CB019E838D836B
:100D40000FC088EC90E09C838B838B819C81019702
:100D5000F1F79C838B838D819E8101979E838D8388
:100D60008D819E81009769F714C06F817885898590
:100D70009A850E944100DC01CB019E838D838D8189
:100D80009E819A83898389819A810197F1F79A8359
:100D9000898382E062E040E00E945B0A2F960FB6F2
:100DA000F894DEBF0FBECDBFCF91DF910895DF93E2
:100DB000CF93CDB7DEB72E970FB6F894DEBF0FBE38
:100DC000CDBF80E090E0A0E2B2E48B879C87AD8746
:100DD000BE876B857C858D859E8520E030E04AEF5F
:100DE00054E40E941702DC01CB018F839887A98706
:100DF000BA876F81788589859A8520E030E040E860
:100E00005FE30E94710388232CF481E090E09E83CD
:100E10008D833FC06F81788589859A8520E03FEF7B
:100E20004FE757E40E94110318164CF56B857C853B
:100E30008D859E8520E030E040E251E40E9417025B
:100E4000DC01CB01BC01CD010E944100DC01CB01E2
:100E50009E838D830FC088EC90E09C838B838B8175
:100E60009C810197F1F79C838B838D819E810197F3
:100E70009E838D838D819E81009769F714C06F8159
:100E8000788589859A850E944100DC01CB019E838B
:100E90008D838D819E819A83898389819A8101972F
:100EA000F1F79A83898388E30E949B058CE00E9476
:100EB0009B0581E00E949B052E960FB6F894DEBF3D
:100EC0000FBECDBFCF91DF910895DF93CF9300D0B8
:100ED0000F92CDB7DEB79B838A8319820EC08981BA
:100EE000282F30E08A819B81FC01E20FF31F808173
:100EF0000E94390689818F5F89838981282F30E09C
:100F00008A819B81FC01E20FF31F8081882339F7DE
:100F10000F900F900F90CF91DF910895DF93CF93B3
:100F200000D00F92CDB7DEB78A836B838A81882386
:100F300019F48B81898306C08A81813019F48B81F1
:100F4000805C8983898180680E949B050F900F9047
:100F50000F90CF91DF910895DF93CF93CDB7DEB798
:100F600027970FB6F894DEBF0FBECDBF9C838B834F
:100F70006D834E832F831A8219828D81882F90E092
:100F8000880F991F880F991F880F991F8A838A815C
:100F900080640E949B0519820EC08981282F30E051
:100FA0008B819C81FC01E20FF31F80810E94390636
:100FB00089818F5F89838981883078F38E816F8101
:100FC0000E948E078D810E94390627960FB6F894ED
:100FD000DEBF0FBECDBFCF91DF9108950F931F935A
:100FE000DF93CF93CDB7DEB7AC970FB6F894DEBFE3
:100FF0000FBECDBF6FA378A789A79AA78FA198A589
:10100000A9A5BAA589839A83AB83BC8318861F825E
:101010001E821D822DC08F81082F10E089819A8148
:10102000AB81BC812AE030E040E050E0BC01CD0162
:101030000E94E12BDC01CB01282FCE010996FC0197
:10104000E00FF11F20838F818F5F8F8389819A81C9
:10105000AB81BC812AE030E040E050E0BC01CD0132
:101060000E94E12BDA01C90189839A83AB83BC8397
:1010700089819A81AB81BC810097A105B10559F6A0
:101080008F8181508887ADC08885282F30E0CE01C0
:101090000996FC01E20FF31F8081282F30E03CA766
:1010A0002BA78BA59CA58430910509F465C02BA5C1
:1010B0003CA525303105E4F48BA59CA58130910534
:1010C00009F442C02BA53CA5223031052CF48BA598
:1010D0009CA5009789F17FC02BA53CA52230310546
:1010E000D9F18BA59CA58330910509F43DC073C04F
:1010F0002BA53CA52730310509F456C08BA59CA52E
:101100008830910564F42BA53CA525303105E1F12B
:101110008BA59CA58630910509F43EC05CC02BA52B
:101120003CA52830310509F447C08BA59CA5893022
:10113000910509F449C04FC08E816D810E948E07D0
:1011400080E30E94390647C08E816D810E948E0720
:1011500081E30E9439063FC08E816D810E948E0717
:1011600082E30E94390637C08E816D810E948E070E
:1011700083E30E9439062FC08E816D810E948E0705
:1011800084E30E94390627C08E816D810E948E07FC
:1011900085E30E9439061FC08E816D810E948E07F3
:1011A00086E30E94390617C08E816D810E948E07EA
:1011B00087E30E9439060FC08E816D810E948E07E1
:1011C00088E30E94390607C08E816D810E948E07D8
:1011D00089E30E9439068885815088878D818F5FD9
:1011E0008D839D818F81981708F44ECFAC960FB6F2
:1011F000F894DEBF0FBECDBFCF91DF911F910F914D
:101200000895DF93CF93CDB7DEB728970FB6F89444
:10121000DEBF0FBECDBF8A836B834C8319828B8167
:10122000883008F0F4C08C81882309F077C08A8167
:10123000282F30E038872F838F8198858130910562
:1012400059F12F813885223031052CF48F81988512
:10125000009769F060C02F8138852230310589F10F
:101260008F8198858330910509F440C054C0AAE36A
:10127000B0E0EAE3F0E08081482F8B81282F30E056
:1012800081E090E0022E02C0880F991F0A94E2F7D5
:10129000809584238C93BDC0A7E3B0E0E7E3F0E042
:1012A0008081482F8B81282F30E081E090E0022E52
:1012B00002C0880F991F0A94E2F7809584238C93CB
:1012C000A8C0A4E3B0E0E4E3F0E08081482F8B8184
:1012D000282F30E081E090E0022E02C0880F991F95
:1012E0000A94E2F7809584238C9393C0A1E3B0E045
:1012F000E1E3F0E08081482F8B81282F30E081E00E
:1013000090E0022E02C0880F991F0A94E2F78095A0
:1013100084238C937EC081E089837BC08C81813063
:1013200009F072C08A81282F30E03E832D838D81A1
:101330009E818130910549F12D813E812230310518
:101340002CF48D819E81009761F05BC02D813E81E0
:101350002230310571F18D819E8183309105E9F153
:1013600050C0AAE3B0E0EAE3F0E08081482F8B812F
:10137000282F30E081E090E0022E02C0880F991FF4
:101380000A94E2F7842B8C9344C0A7E3B0E0E7E330
:10139000F0E08081482F8B81282F30E081E090E0C1
:1013A000022E02C0880F991F0A94E2F7842B8C93B7
:1013B00030C0A4E3B0E0E4E3F0E08081482F8B810B
:1013C000282F30E081E090E0022E02C0880F991FA4
:1013D0000A94E2F7842B8C931CC0A1E3B0E0E1E314
:1013E000F0E08081482F8B81282F30E081E090E071
:1013F000022E02C0880F991F0A94E2F7842B8C9367
:1014000008C081E0898305C081E0898302C081E052
:101410008983898128960FB6F894DEBF0FBECDBFB1
:10142000CF91DF910895DF93CF9300D000D00F923A
:10143000CDB7DEB78A836B8319828A81282F30E08B
:101440003D832C838C819D8181309105D1F02C814D
:101450003D81223031052CF48C819D81009761F013
:101460001FC02C813D812230310581F08C819D810E
:101470008330910581F014C0EAE3F0E08B81808332
:1014800011C0E7E3F0E08B8180830CC0E4E3F0E07F
:101490008B81808307C0E1E3F0E08B81808302C011
:1014A00081E0898389810F900F900F900F900F90AA
:1014B000CF91DF910895DF93CF93CDB7DEB7289713
:1014C0000FB6F894DEBF0FBECDBF8A836B834C830B
:1014D00019828B81883008F0F4C08C81882309F050
:1014E00077C08A81282F30E038872F838F819885B5
:1014F0008130910559F12F813885223031052CF446
:101500008F819885009769F060C02F8138852230DF
:10151000310589F18F8198858330910509F440C0A8
:1015200054C0ABE3B0E0EBE3F0E08081482F8B8167
:10153000282F30E081E090E0022E02C0880F991F32
:101540000A94E2F7809584238C93BDC0A8E3B0E0B1
:10155000E8E3F0E08081482F8B81282F30E081E0A4
:1015600090E0022E02C0880F991F0A94E2F780953E
:1015700084238C93A8C0A5E3B0E0E5E3F0E080818C
:10158000482F8B81282F30E081E090E0022E02C0AE
:10159000880F991F0A94E2F7809584238C9393C057
:1015A000A2E3B0E0E2E3F0E08081482F8B81282FB6
:1015B00030E081E090E0022E02C0880F991F0A946B
:1015C000E2F7809584238C937EC081E089837BC081
:1015D0008C81813009F072C08A81282F30E03E83EF
:1015E0002D838D819E818130910549F12D813E8130
:1015F000223031052CF48D819E81009761F05BC013
:101600002D813E812230310571F18D819E818330A3
:101610009105E9F150C0ABE3B0E0EBE3F0E080818D
:10162000482F8B81282F30E081E090E0022E02C00D
:10163000880F991F0A94E2F7842B8C9344C0A8E387
:10164000B0E0E8E3F0E08081482F8B81282F30E084
:1016500081E090E0022E02C0880F991F0A94E2F701
:10166000842B8C9330C0A5E3B0E0E5E3F0E080810B
:10167000482F8B81282F30E081E090E0022E02C0BD
:10168000880F991F0A94E2F7842B8C931CC0A2E365
:10169000B0E0E2E3F0E08081482F8B81282F30E03A
:1016A00081E090E0022E02C0880F991F0A94E2F7B1
:1016B000842B8C9308C081E0898305C081E08983F5
:1016C00002C081E08983898128960FB6F894DEBF35
:1016D0000FBECDBFCF91DF910895DF93CF9300D0A0
:1016E00000D00F92CDB7DEB78A836B8319828A81CF
:1016F000282F30E03D832C838C819D8181309105A2
:10170000D1F02C813D81223031052CF48C819D81DA
:10171000009761F01FC02C813D812230310581F09E
:101720008C819D818330910581F014C0EBE3F0E062
:101730008B81808311C0E8E3F0E08B8180830CC053
:10174000E5E3F0E08B81808307C0E2E3F0E08B818A
:10175000808302C081E0898389810F900F900F9070
:101760000F900F90CF91DF910895DF93CF93CDB776
:10177000DEB727970FB6F894DEBF0FBECDBF8A83C2
:101780006B835D834C8319828C819D81009709F462
:1017900088C08B81883008F084C08A81282F30E08F
:1017A0003F832E834E815F814130510579F18E81D7
:1017B0009F818230910534F42E813F8121153105BE
:1017C00069F06CC04E815F8142305105B9F18E8164
:1017D0009F818330910509F449C060C0A9E3B0E05E
:1017E000E9E3F0E08081282F30E08B81882F90E0C2
:1017F000A90102C0440F551F8A95E2F7CA01817002
:101800008C938C91EC81FD8180834DC0A6E3B0E088
:10181000E6E3F0E08081282F30E08B81882F90E094
:10182000A90102C0440F551F8A95E2F7CA018170D1
:101830008C938C91EC81FD81808335C0A3E3B0E073
:10184000E3E3F0E08081282F30E08B81882F90E067
:10185000A90102C0440F551F8A95E2F7CA018170A1
:101860008C938C91EC81FD8180831DC0A0E3B0E05E
:10187000E0E3F0E08081282F30E08B81882F90E03A
:10188000A90102C0440F551F8A95E2F7CA01817071
:101890008C938C91EC81FD81808305C081E08983EC
:1018A00002C081E08983898127960FB6F894DEBF54
:1018B0000FBECDBFCF91DF9108950F931F93DF939C
:1018C000CF93CDB7DEB7CE58D1400FB6F894DEBF78
:1018D0000FBECDBF80E06FEF0E94130A82E060E090
:1018E00041E00E94010982E061E041E00E940109BB
:1018F00082E062E041E00E9401090E94D706CE0129
:1019000086559F4FC65CDE4F99838883CA53D1406A
:101910008EE791E0C45CDE4F99838883CC53D1403D
:1019200098E0C25CDE4F9883CE53D140C45CDE4F5A
:10193000A881B981CC53D1400C90C45CDE4FE881C2
:10194000F981CC53D1403196C45CDE4FF983E883F2
:10195000CC53D140C65CDE4FA881B981CA53D14077
:101960000C92C65CDE4FE881F981CA53D1403196B2
:10197000C65CDE4FF983E883CA53D140C25CDE4FB8
:10198000F881CE53D140F150C25CDE4FF883CE5384
:10199000D140C25CDE4F8881CE53D140882331F6DE
:1019A000CE018E549F4FC15CDE4F99838883CF5305
:1019B000D140A6E7B1E0CF5BDE4FB983A883C15425
:1019C000D140B8E0CD5BDE4FB883C354D140CF5B8C
:1019D000DE4FE881F981C154D1400080CF5BDE4FFA
:1019E00088819981C154D1400196CF5BDE4F9983A4
:1019F0008883C154D140C15CDE4FA881B981CF53E7
:101A0000D1400C92C15CDE4FE881F981CF53D140C7
:101A10003196C15CDE4FF983E883CF53D140CD5B73
:101A2000DE4FF881C354D140F150CD5BDE4FF883D7
:101A3000C354D140CD5BDE4F8881C354D14088234D
:101A400031F681E00E949B0580E690E00E946507E8
:101A500081E060E00E948E078AE690E00E946507C0
:101A6000CE0186559F4F61E040E02FE00E94AC0719
:101A7000CE018E549F4F62E041E02FE00E94AC0700
:101A8000FE01EB55FF4F80E090E0AAEFB4E48083C5
:101A90009183A283B3838E010F551F4FFE01EB5537
:101AA000FF4F608171818281938120E030E04AEFB5
:101AB00054E40E941702DC01CB01F801808391837A
:101AC000A283B383FE01EF55FF4F60817181828154
:101AD000938120E030E040E85FE30E9471038823B7
:101AE00044F4FE01E156FF4F81E090E09183808352
:101AF00064C0FE01EF55FF4F608171818281938147
:101B000020E03FEF4FE757E40E94110318160CF056
:101B100043C0FE01EB55FF4F60817181828193814B
:101B200020E030E040E251E40E941702DC01CB01EA
:101B30008E0101561F4FBC01CD010E944100DC0106
:101B4000CB01F801918380831FC0FE01E356FF4F54
:101B500088EC90E091838083FE01E356FF4F808103
:101B600091810197F1F7FE01E356FF4F9183808346
:101B7000DE01A156BF4FFE01E156FF4F80819181EA
:101B8000019711969C938E93FE01E156FF4F808141
:101B900091810097D1F627C08E0101561F4FFE019B
:101BA000EF55FF4F60817181828193810E944100D6
:101BB000DC01CB01F80191838083DE01A556BF4F84
:101BC000FE01E156FF4F808191818D939C93FE0130
:101BD000E556FF4F808191810197F1F7FE01E556AF
:101BE000FF4F91838083CE0186549F4FCC5BDE4FA5
:101BF00099838883C454D1408EE691E0CA5BDE4F5E
:101C000099838883C654D14098E0C85BDE4F98839F
:101C1000C854D140CA5BDE4FA881B981C654D140B7
:101C20000C90CA5BDE4FE881F981C654D1403196F1
:101C3000CA5BDE4FF983E883C654D140CC5BDE4FEC
:101C4000A881B981C454D1400C92CC5BDE4FE881AD
:101C5000F981C454D1403196CC5BDE4FF983E883DF
:101C6000C454D140C85BDE4FF881C854D140F15014
:101C7000C85BDE4FF883C854D140C85BDE4F888113
:101C8000C854D140882331F6CE018E539F4FC75B95
:101C9000DE4F99838883C954D140A6E6B1E0C55B85
:101CA000DE4FB983A883CB54D140B8E0C35BDE4F8D
:101CB000B883CD54D140C55BDE4FE881F981CB5468
:101CC000D1400080C55BDE4F88819981CB54D140E3
:101CD0000196C55BDE4F99838883CB54D140C75BA7
:101CE000DE4FA881B981C954D1400C92C75BDE4F49
:101CF000E881F981C954D1403196C75BDE4FF98341
:101D0000E883C954D140C35BDE4FF881CD54D14044
:101D1000F150C35BDE4FF883CD54D140C35BDE4F3F
:101D20008881CD54D140882331F6CE0186539F4F10
:101D3000C25BDE4F99838883CE54D140AEE5B1E0DB
:101D4000C05BDE4FB983A883C055D140B8E0CE5AFE
:101D5000DE4FB883C255D140C05BDE4FE881F981C8
:101D6000C055D1400080C05BDE4F88819981C0554D
:101D7000D1400196C05BDE4F99838883C055D14026
:101D8000C25BDE4FA881B981CE54D1400C92C25BB8
:101D9000DE4FE881F981CE54D1403196C25BDE4FEF
:101DA000F983E883CE54D140CE5ADE4FF881C25534
:101DB000D140F150CE5ADE4FF883C255D140CE5AB1
:101DC000DE4F8881C255D140882331F6FE01E755A8
:101DD000FF4F1082A6C181E00E949B0583E790E03F
:101DE0000E94650781E060E00E948E078EE790E028
:101DF0000E946507CE0186559F4F61E040E02FE0CD
:101E00000E94AC07CE018E549F4F62E041E02FE06C
:101E10000E94AC07CE018E539F4F63E041E02EE05D
:101E20000E94AC07FE01E956FF4F80E090E0AAE770
:101E3000B3E480839183A283B3838E010D561F4F39
:101E4000FE01E956FF4F608171818281938120E01C
:101E500030E04AEF54E40E941702DC01CB01F801A4
:101E600080839183A283B383FE01ED56FF4F60818F
:101E700071818281938120E030E040E85FE30E943D
:101E80007103882344F4FE01EF56FF4F81E090E098
:101E90009183808364C0FE01ED56FF4F60817181A4
:101EA0008281938120E03FEF4FE757E40E941103C6
:101EB00018160CF043C0FE01E956FF4F6081718196
:101EC0008281938120E030E040E251E40E941702D9
:101ED000DC01CB018E010F561F4FBC01CD010E94CA
:101EE0004100DC01CB01F801918380831FC0FE011A
:101EF000E157FF4F88EC90E091838083FE01E1572A
:101F0000FF4F808191810197F1F7FE01E157FF4F6B
:101F100091838083DE01AF56BF4FFE01EF56FF4F26
:101F200080819181019711969C938E93FE01EF56CB
:101F3000FF4F808191810097D1F627C08E010F5607
:101F40001F4FFE01ED56FF4F6081718182819381A9
:101F50000E944100DC01CB01F80191838083DE0106
:101F6000A357BF4FFE01EF56FF4F808191818D93A4
:101F70009C93FE01E357FF4F808191810197F1F718
:101F8000FE01E357FF4F91838083CE0186549F4F1C
:101F900062E041E02EE00E94AC07CE0186539F4FE5
:101FA00063E041E02EE00E94AC07FE01E757FF4FDF
:101FB00080E090E0AAE7B3E480839183A283B383B7
:101FC0008E010B571F4FFE01E757FF4F6081718154
:101FD0008281938120E030E04AEF54E40E941702AE
:101FE000DC01CB01F80180839183A283B383FE01DE
:101FF000EB57FF4F608171818281938120E030E057
:1020000040E85FE30E947103882344F4FE01ED572A
:10201000FF4F81E090E09183808364C0FE01EB5725
:10202000FF4F608171818281938120E03FEF4FE714
:1020300057E40E94110318160CF043C0FE01E75745
:10204000FF4F608171818281938120E030E040E226
:1020500051E40E941702DC01CB018E010D571F4F86
:10206000BC01CD010E944100DC01CB01F80191834C
:1020700080831FC0FE01EF57FF4F88EC90E09183F3
:102080008083FE01EF57FF4F808191810197F1F727
:10209000FE01EF57FF4F91838083DE01AD57BF4FA5
:1020A000FE01ED57FF4F80819181019711969C931E
:1020B0008E93FE01ED57FF4F808191810097D1F6FD
:1020C00027C08E010D571F4FFE01EB57FF4F608158
:1020D0007181828193810E944100DC01CB01F80172
:1020E00091838083DE01A158BF4FFE01ED57FF4F62
:1020F000808191818D939C93FE01E158FF4F8081F7
:1021000091810197F1F7FE01E158FF4F91838083A0
:10211000DE01A755BF4FFE01E755FF4F80818F5F5E
:102120008C93FE01E755FF4F8081853008F453CE34
:10213000FE01E558FF4F80E090E0AAEFB3E4808312
:102140009183A283B3838E0109581F4FFE01E55886
:10215000FF4F608171818281938120E030E04AEFFE
:1021600054E40E941702DC01CB01F80180839183C3
:10217000A283B383FE01E958FF4F608171818281A0
:10218000938120E030E040E85FE30E947103882300
:1021900044F4FE01EB58FF4F81E090E0918380838F
:1021A00064C0FE01E958FF4F608171818281938193
:1021B00020E03FEF4FE757E40E94110318160CF0A0
:1021C00043C0FE01E558FF4F608171818281938198
:1021D00020E030E040E251E40E941702DC01CB0134
:1021E0008E010B581F4FBC01CD010E944100DC0144
:1021F000CB01F801918380831FC0FE01ED58FF4F92
:1022000088EC90E091838083FE01ED58FF4F808140
:1022100091810197F1F7FE01ED58FF4F9183808383
:10222000DE01AB58BF4FFE01EB58FF4F808191811B
:10223000019711969C938E93FE01EB58FF4F80817E
:1022400091810097D1F627C08E010B581F4FFE01D8
:10225000E958FF4F60817181828193810E94410022
:10226000DC01CB01F80191838083DE01AF58BF4FC1
:10227000FE01EB58FF4F808191818D939C93FE016D
:10228000EF58FF4F808191810197F1F7FE01EF58E0
:10229000FF4F91838083CE018E529F4FCD5ADE4FE8
:1022A00099838883C355D14086E591E0CB5ADE4FB0
:1022B00099838883C555D14098E0C95ADE4F9883E9
:1022C000C755D140CB5ADE4FA881B981C555D14001
:1022D0000C90CB5ADE4FE881F981C555D14031963B
:1022E000CB5ADE4FF983E883C555D140CD5ADE4F36
:1022F000A881B981C355D1400C92CD5ADE4FE881F7
:10230000F981C355D1403196CD5ADE4FF983E88328
:10231000C355D140C95ADE4FF881C755D140F1505D
:10232000C95ADE4FF883C755D140C95ADE4F88815C
:10233000C755D140882331F6CE0186529F4FC85AE7
:10234000DE4F99838883C855D140AEE4B1E0C65AC8
:10235000DE4FB983A883CA55D140B8E0C45ADE4FD6
:10236000B883CC55D140C65ADE4FE881F981CA55B1
:10237000D1400080C65ADE4F88819981CA55D1402C
:102380000196C65ADE4F99838883CA55D140C85AF0
:10239000DE4FA881B981C855D1400C92C85ADE4F92
:1023A000E881F981C855D1403196C85ADE4FF9838A
:1023B000E883C855D140C45ADE4FF881CC55D1408E
:1023C000F150C45ADE4FF883CC55D140C45ADE4F89
:1023D0008881CC55D140882331F6FE01E755FF4F67
:1023E0001082FE01E755FF4F1082F8C081E00E9485
:1023F0009B0587E890E00E946507FE01E755FF4FC7
:102400009FE08081292F281BCE0186559F4F61E0D8
:1024100040E00E94AC07FE01E755FF4F8081882F06
:1024200090E081709070009779F4FE01E755FF4FBE
:102430009FE08081292F281BCE018E529F4F62E0A2
:1024400041E00E94AC070EC0FE01E755FF4F9FE040
:102450008081292F281BCE0186529F4F62E041E0E8
:102460000E94AC07FE01E359FF4F80E090E0AAE72D
:10247000B3E480839183A283B3838E0107591F4FF6
:10248000FE01E359FF4F608171818281938120E0D9
:1024900030E04AEF54E40E941702DC01CB01F8015E
:1024A00080839183A283B383FE01E759FF4F60814C
:1024B00071818281938120E030E040E85FE30E94F7
:1024C0007103882344F4FE01E959FF4F81E090E055
:1024D0009183808364C0FE01E759FF4F6081718161
:1024E0008281938120E03FEF4FE757E40E94110380
:1024F00018160CF043C0FE01E359FF4F6081718153
:102500008281938120E030E040E251E40E94170292
:10251000DC01CB018E0109591F4FBC01CD010E9486
:102520004100DC01CB01F801918380831FC0FE01D3
:10253000EB59FF4F88EC90E091838083FE01EB59CB
:10254000FF4F808191810197F1F7FE01EB59FF4F19
:1025500091838083DE01A959BF4FFE01E959FF4FE6
:1025600080819181019711969C938E93FE01E95988
:10257000FF4F808191810097D1F627C08E010959C4
:102580001F4FFE01E759FF4F608171818281938166
:102590000E944100DC01CB01F80191838083DE01C0
:1025A000AD59BF4FFE01E959FF4F808191818D9355
:1025B0009C93FE01ED59FF4F808191810197F1F7C6
:1025C000FE01ED59FF4F91838083DE01A755BF4F78
:1025D000FE01E755FF4F80818F5F8C93FE01E75529
:1025E000FF4F8081863008F401CFFE01E755FF4F91
:1025F0001082F5C081E00E949B0587E890E00E9470
:102600006507FE01E755FF4F8081282F275FCE0128
:1026100086559F4F61E040E00E94AC07FE01E75500
:10262000FF4F8081882F90E081709070009771F447
:10263000FE01E755FF4F8081282F275FCE018E5284
:102640009F4F62E041E00E94AC070DC0FE01E755DC
:10265000FF4F8081282F275FCE0186529F4F62E077
:1026600041E00E94AC07FE01E15AFF4F80E090E09C
:10267000AAE7B3E480839183A283B3838E01055AD2
:102680001F4FFE01E15AFF4F60817181828193816A
:1026900020E030E04AEF54E40E941702DC01CB0155
:1026A000F80180839183A283B383FE01E55AFF4F33
:1026B000608171818281938120E030E040E85FE3B6
:1026C0000E947103882344F4FE01E75AFF4F81E022
:1026D00090E09183808364C0FE01E55AFF4F6081E2
:1026E00071818281938120E03FEF4FE757E40E94A0
:1026F000110318160CF043C0FE01E15AFF4F608130
:1027000071818281938120E030E040E251E40E94B7
:102710001702DC01CB018E01075A1F4FBC01CD010E
:102720000E944100DC01CB01F801918380831FC02E
:10273000FE01E95AFF4F88EC90E091838083FE010F
:10274000E95AFF4F808191810197F1F7FE01E95A23
:10275000FF4F91838083DE01A75ABF4FFE01E75AE6
:10276000FF4F80819181019711969C938E93FE017A
:10277000E75AFF4F808191810097D1F627C08E01E3
:10278000075A1F4FFE01E55AFF4F60817181828118
:1027900093810E944100DC01CB01F8019183808389
:1027A000DE01AB5ABF4FFE01E75AFF4F8081918196
:1027B0008D939C93FE01EB5AFF4F8081918101978D
:1027C000F1F7FE01EB5AFF4F91838083DE01A7559D
:1027D000BF4FFE01E755FF4F80818F5F8C93FE0155
:1027E000E755FF4F8081873008F404CFFE01EF5A90
:1027F000FF4F80E090E0AAEFB3E480839183A2834F
:10280000B3838E01035B1F4FFE01EF5AFF4F6081C0
:1028100071818281938120E030E04AEF54E40E948C
:102820001702DC01CB01F80180839183A283B3837B
:10283000FE01E35BFF4F608171818281938120E023
:1028400030E040E85FE30E947103882344F4FE0116
:10285000E55BFF4F81E090E09183808364C0FE01DF
:10286000E35BFF4F608171818281938120E03FEFC4
:102870004FE757E40E94110318160CF043C0FE0105
:10288000EF5AFF4F608171818281938120E030E0B7
:1028900040E251E40E941702DC01CB018E01055B8E
:1028A0001F4FBC01CD010E944100DC01CB01F801AA
:1028B000918380831FC0FE01E75BFF4F88EC90E0AF
:1028C00091838083FE01E75BFF4F808191810197B7
:1028D000F1F7FE01E75BFF4F91838083DE01A55B8B
:1028E000BF4FFE01E55BFF4F8081918101971196FB
:1028F0009C938E93FE01E55BFF4F80819181009751
:10290000D1F627C08E01055B1F4FFE01E35BFF4F31
:1029100060817181828193810E944100DC01CB0141
:10292000F80191838083DE01A95BBF4FFE01E55B67
:10293000FF4F808191818D939C93FE01E95BFF4F56
:10294000808191810197F1F7FE01E95BFF4F91834F
:102950008083CE018E519F4FC35ADE4F9983888367
:10296000CD55D14086E491E0C15ADE4F99838883EA
:10297000CF55D14098E0CF59DE4F9883C156D14012
:10298000C15ADE4FA881B981CF55D1400C90C15AB0
:10299000DE4FE881F981CF55D1403196C15ADE4FE3
:1029A000F983E883CF55D140C35ADE4FA881B9815E
:1029B000CD55D1400C92C35ADE4FE881F981CD55F7
:1029C000D1403196C35ADE4FF983E883CD55D140CB
:1029D000CF59DE4FF881C156D140F150CF59DE4F6B
:1029E000F883C156D140CF59DE4F8881C156D140BE
:1029F000882331F6CE0186519F4FCE59DE4F998301
:102A00008883C256D140AEE3B1E0CC59DE4FB983E2
:102A1000A883C456D140B8E0CA59DE4FB883C65621
:102A2000D140CC59DE4FE881F981C456D1400080B5
:102A3000CC59DE4F88819981C456D1400196CC593A
:102A4000DE4F99838883C456D140CE59DE4FA8818A
:102A5000B981C256D1400C92CE59DE4FE881F9813E
:102A6000C256D1403196CE59DE4FF983E883C25623
:102A7000D140CA59DE4FF881C656D140F150CA59EB
:102A8000DE4FF883C656D140CA59DE4F8881C656FC
:102A9000D140882331F6CE018E509F4FC959DE4F69
:102AA00099838883C756D140A6E3B1E0C759DE4F6A
:102AB000B983A883C956D140B8E0C559DE4FB88361
:102AC000CB56D140C759DE4FE881F981C956D14074
:102AD0000080C759DE4F88819981C956D14001963F
:102AE000C759DE4F99838883C956D140C959DE4FF3
:102AF000A881B981C756D1400C92C959DE4FE881EF
:102B0000F981C756D1403196C959DE4FF983E88320
:102B1000C756D140C559DE4FF881CB56D140F15050
:102B2000C559DE4FF883CB56D140C559DE4F888159
:102B3000CB56D140882331F6CE0186509F4FC459E1
:102B4000DE4F99838883CC56D140AEE2B1E0C259C2
:102B5000DE4FB983A883CE56D140B8E0C059DE4FCE
:102B6000B883C057D140C259DE4FE881F981CE56B3
:102B7000D1400080C259DE4F88819981CE56D14024
:102B80000196C259DE4F99838883CE56D140C459ED
:102B9000DE4FA881B981CC56D1400C92C459DE4F8A
:102BA000E881F981CC56D1403196C459DE4FF98382
:102BB000E883CC56D140C059DE4FF881C057D14090
:102BC000F150C059DE4FF883C057D140C059DE4F95
:102BD0008881C057D140882331F6CE018E5F9E4F49
:102BE000CF58DE4F99838883C157D140A6E2B1E028
:102BF000CD58DE4FB983A883C357D140B8E0CB5836
:102C0000DE4FB883C557D140CD58DE4FE881F981FA
:102C1000C357D1400080CD58DE4F88819981C3577A
:102C2000D1400196CD58DE4F99838883C357D14058
:102C3000CF58DE4FA881B981C157D1400C92CF58EF
:102C4000DE4FE881F981C157D1403196CF58DE4F30
:102C5000F983E883C157D140CB58DE4FF881C5577F
:102C6000D140F150CB58DE4FF883C557D140CB58F7
:102C7000DE4F8881C557D140882331F6FE01E755E4
:102C8000FF4F1082FE01E755FF4F1082D8C081E050
:102C90000E949B0581E990E00E946507FE01E755CF
:102CA000FF4F8081882F90E0817090700097E9F449
:102CB000FE01E755FF4F9FE08081292F281BCE01A1
:102CC0008E519F4F61E040E00E94AC07FE01E75546
:102CD000FF4F9FE08081292F281BCE018E509F4FF0
:102CE00062E041E00E94AC071CC0FE01E755FF4FC7
:102CF0009FE08081292F281BCE0186519F4F61E0E4
:102D000040E00E94AC07FE01E755FF4F9FE0808145
:102D1000292F281BCE018E509F4F62E041E00E9478
:102D2000AC07FE01ED5BFF4F80E090E8ABE3B4E45D
:102D300080839183A283B3838E01015C1F4FFE01C8
:102D4000ED5BFF4F608171818281938120E030E0F3
:102D50004AEF54E40E941702DC01CB01F8018083A2
:102D60009183A283B383FE01FF966081718182818A
:102D7000938120E030E040E85FE30E947103882304
:102D80002CF481E090E09EAF8DAF46C0FE01FF962F
:102D9000608171818281938120E03FEF4FE757E4AA
:102DA0000E941103181664F5FE01ED5BFF4F608170
:102DB00071818281938120E030E040E251E40E9401
:102DC0001702DC01CB01BC01CD010E944100DC01F6
:102DD000CB019EAF8DAF0FC088EC90E09CAF8BAF66
:102DE0008BAD9CAD0197F1F79CAF8BAF8DAD9EADD8
:102DF00001979EAF8DAF8DAD9EAD009769F716C060
:102E0000FE01FF9660817181828193810E94410061
:102E1000DC01CB019EAF8DAF8DAD9EAD9AAF89AF7A
:102E200089AD9AAD0197F1F79AAF89AFDE01A75549
:102E3000BF4FFE01E755FF4F80818F5F8C93FE01EE
:102E4000E755FF4F8081843008F421CFFE01E7551C
:102E5000FF4F1082C1C081E00E949B0581E990E094
:102E60000E946507FE01E755FF4F8081882F90E0A3
:102E7000817090700097D9F4FE01E755FF4F808173
:102E8000282F255FCE0186559F4F61E040E00E94CC
:102E9000AC07FE01E755FF4F8081282F255FCE014B
:102EA00086509F4F62E041E00E94AC071AC0FE01CD
:102EB000E755FF4F8081282F255FCE0186559F4F14
:102EC00061E040E00E94AC07FE01E755FF4F8081C2
:102ED000282F255FCE018E5F9E4F62E041E00E9469
:102EE000AC0780E090E8ABE3B4E48DAB9EABAFAB56
:102EF000B8AF6DA97EA98FA998AD20E030E04AEF68
:102F000054E40E941702DC01CB0189AB9AABABAB56
:102F1000BCAB69A97AA98BA99CA920E030E040E864
:102F20005FE30E94710388232CF481E090E098AB6A
:102F30008FA73FC069A97AA98BA99CA920E03FEF80
:102F40004FE757E40E94110318164CF56DA97EA9AE
:102F50008FA998AD20E030E040E251E40E941702D2
:102F6000DC01CB01BC01CD010E944100DC01CB01A1
:102F700098AB8FA70FC088EC90E09EA78DA78DA57A
:102F80009EA50197F1F79EA78DA78FA598A90197F8
:102F900098AB8FA78FA598A9009769F714C069A966
:102FA0007AA98BA99CA90E944100DC01CB0198ABB6
:102FB0008FA78FA598A99CA78BA78BA59CA50197E8
:102FC000F1F79CA78BA7DE01A755BF4FFE01E75580
:102FD000FF4F80818F5F8C93FE01E755FF4F80810B
:102FE000853008F438CF80E090E0AAEFB3E48FA3F7
:102FF00098A7A9A7BAA76FA178A589A59AA520E047
:1030000030E04AEF54E40E941702DC01CB018BA3AD
:103010009CA3ADA3BEA36BA17CA18DA19EA120E02A
:1030200030E040E85FE30E94710388232CF481E0E4
:1030300090E09AA389A33FC06BA17CA18DA19EA122
:1030400020E03FEF4FE757E40E94110318164CF5BC
:103050006FA178A589A59AA520E030E040E251E46F
:103060000E941702DC01CB01BC01CD010E9441008E
:10307000DC01CB019AA389A30FC088EC90E098A350
:103080008F8F8F8D98A10197F1F798A38F8F89A1CA
:103090009AA101979AA389A389A19AA1009769F798
:1030A00014C06BA17CA18DA19EA10E944100DC01F6
:1030B000CB019AA389A389A19AA19E8F8D8F8D8D13
:1030C0009E8D0197F1F79E8F8D8FCE01865F9E4F6B
:1030D000CA58DE4F99838883C657D1408EE191E06C
:1030E000C858DE4F99838883C857D14098E0C658A6
:1030F000DE4F9883CA57D140C858DE4FA881B981A6
:10310000C857D1400C90C858DE4FE881F981C857A4
:10311000D1403196C858DE4FF983E883C857D14073
:10312000CA58DE4FA881B981C657D1400C92CA58FF
:10313000DE4FE881F981C657D1403196CA58DE4F3B
:10314000F983E883C657D140C658DE4FF881CA5785
:10315000D140F150C658DE4FF883CA57D140C65807
:10316000DE4F8881CA57D140882331F6CE018E5E6A
:103170009E4FC558DE4F99838883CB57D140A6E137
:10318000B1E0C358DE4FB983A883CD57D140B8E032
:10319000C158DE4FB883CF57D140C358DE4FE881C6
:1031A000F981CD57D1400080C358DE4F8881998185
:1031B000CD57D1400196C358DE4F99838883CD57B0
:1031C000D140C558DE4FA881B981CB57D1400C9270
:1031D000C558DE4FE881F981CB57D1403196C558AB
:1031E000DE4FF983E883CB57D140C158DE4FF881D9
:1031F000CF57D140F150C158DE4FF883CF57D1405F
:10320000C158DE4F8881CF57D140882331F6CE0197
:10321000865E9E4FC058DE4F99838883C058D14048
:10322000AEE0B1E0CE57DE4FB983A883C258D1409B
:10323000B8E0CC57DE4FB883C458D140CE57DE4FEC
:10324000E881F981C258D1400080CE57DE4F888195
:103250009981C258D1400196CE57DE4F9983888319
:10326000C258D140C058DE4FA881B981C058D14062
:103270000C92C058DE4FE881F981C058D140319698
:10328000C058DE4FF983E883C058D140CC57DE4F99
:10329000F881C458D140F150CC57DE4FF883C45860
:1032A000D140CC57DE4F8881C458D140882331F6B5
:1032B000CE018E5D9E4FCB57DE4F99838883C558D4
:1032C000D140A6E0B1E0C957DE4FB983A883C75803
:1032D000D140B8E0C757DE4FB883C958D140C9576D
:1032E000DE4FE881F981C758D1400080C957DE4FD1
:1032F00088819981C758D1400196C957DE4F99837B
:103300008883C758D140CB57DE4FA881B981C558B3
:10331000D1400C92CB57DE4FE881F981C558D1409E
:103320003196CB57DE4FF983E883C558D140C75754
:10333000DE4FF881C958D140F150C757DE4FF883AE
:10334000C958D140C757DE4F8881C958D14088231A
:1033500031F6CE01865D9E4F28E0FC01DF01822F11
:103360001D928A95E9F7FE01E65DFE4F8FE18383AA
:10337000CE018E5C9E4FC657DE4F99838883CA5814
:10338000D140AEEFB0E0C457DE4FB983A883CC582C
:10339000D140B8E0C257DE4FB883CE58D140C457B1
:1033A000DE4FE881F981CC58D1400080C457DE4F10
:1033B00088819981CC58D1400196C457DE4F9983BA
:1033C0008883CC58D140C657DE4FA881B981CA58EE
:1033D000D1400C92C657DE4FE881F981CA58D140DE
:1033E0003196C657DE4FF983E883CA58D140C25799
:1033F000DE4FF881CE58D140F150C257DE4FF883EE
:10340000CE58D140C257DE4F8881CE58D140882354
:1034100031F6FE01E755FF4F1082B3C081E00E94F4
:103420009B0580E062E00E948E078DE990E00E949B
:103430006507CE0186559F4F61E040E02FE00E9476
:10344000AC07CE018E549F4F62E041E02FE00E9416
:10345000AC07CE01865F9E4F63E041E020E00E9412
:10346000AC07CE018E5E9E4F64E041E021E00E94F9
:10347000AC07FE01E755FF4F8081282F2E5FCE015C
:10348000865E9E4F65E041E00E94AC0780E090E0E0
:10349000AAEFB3E4898F9A8FAB8FBC8F698D7A8D39
:1034A0008B8D9C8D20E030E04AEF54E40E9417029F
:1034B000DC01CB018D8B9E8BAF8BB88F6D897E89A4
:1034C0008F89988D20E030E040E85FE30E9471032F
:1034D00088232CF481E090E09C8B8B8B3FC06D891E
:1034E0007E898F89988D20E03FEF4FE757E40E9457
:1034F000110318164CF5698D7A8D8B8D9C8D20E00B
:1035000030E040E251E40E941702DC01CB01BC0133
:10351000CD010E944100DC01CB019C8B8B8B0FC045
:1035200088EC90E09A8B898B89899A890197F1F7C9
:103530009A8B898B8B899C8901979C8B8B8B8B8930
:103540009C89009769F714C06D897E898F89988D51
:103550000E944100DC01CB019C8B8B8B8B899C8969
:10356000988B8F878F8598890197F1F7988B8F8734
:10357000DE01A755BF4FFE01E755FF4F80818F5FEA
:103580008C93FE01E755FF4F80818E3008F446CFC3
:1035900081E00E949B05CE018E5D9E4F61E041E07F
:1035A0002FE00E94AC07CE01865D9E4F62E041E0B5
:1035B0002EE00E94AC07CE018E5C9E4F63E041E09E
:1035C0002DE00E94AC07CE01865F9E4F64E041E093
:1035D00020E00E94AC07CE018E5E9E4F65E041E088
:1035E00021E00E94AC0780E090E0AAEFB4E48B8772
:1035F0009C87AD87BE876B857C858D859E8520E009
:1036000030E04AEF54E40E941702DC01CB018F83C3
:103610009887A987BA876F81788589859A8520E000
:1036200030E040E85FE30E94710388232CF481E0DE
:1036300090E09E838D8340C06F81788589859A85CF
:1036400020E03FEF4FE757E40E941103181654F5AE
:103650006B857C858D859E8520E030E040E251E4DD
:103660000E941702DC01CB01BC01CD010E94410088
:10367000DC01CB019E838D830FC088EC90E09C839E
:103680008B838B819C810197F1F79C838B838D8148
:103690009E8101979E838D838D819E81009769F71E
:1036A0000C947F0C6F81788589859A850E944100F2
:1036B000DC01CB019E838D838D819E819A838983DA
:1036C00089819A810197F1F79A8389830C947F0C01
:1036D000DF93CF93CDB7DEB7C554D0400FB6F89483
:1036E000DEBF0FBECDBFCE0142969BAB8AABEEE9EB
:1036F000F1E0FDABECABF8E0FEABECA9FDA900807E
:103700008CA99DA901969DAB8CABEAA9FBA900826F
:103710008AA99BA901969BAB8AAB9EA991509EABAF
:10372000EEA9EE2351F7CE014A9698AF8FABE6E9AA
:10373000F1E0FAAFE9AFF8E0FBAFE9ADFAAD008038
:1037400089AD9AAD01969AAF89AFEFA9F8AD008225
:103750008FA998AD019698AF8FAB9BAD91509BAF61
:10376000EBADEE2351F7CE0182969DAF8CAFEEE824
:10377000F1E0FFAFEEAFF8E02196FFAF2197EEAD9D
:10378000FFAD00808EAD9FAD01969FAF8EAFECADCB
:10379000FDAD00828CAD9DAD01969DAF8CAF2196A5
:1037A0009FAD2197915021969FAF21972196EFAD24
:1037B0002197EE2321F7CE018A9623969FAF8EAFF5
:1037C0002397E6E8F1E02596FFAFEEAF2597F8E006
:1037D0002696FFAF26972596EEADFFAD2597008084
:1037E00025968EAD9FAD2597019625969FAF8EAFFE
:1037F00025972396EEADFFAD2397008223968EADDD
:103800009FAD2397019623969FAF8EAF2397269661
:103810009FAD2697915026969FAF26972696EFAD9F
:103820002697EE23C1F680E06FEF0E94130A82E034
:1038300060E041E00E94010982E061E041E00E9415
:10384000010982E062E041E00E9401090E94D7067E
:103850001F86198A8FE0888BA4C0288988898150A7
:10386000888BCE01429661E049890E94AC07288985
:1038700088898150888BCE014A9662E049890E94EE
:10388000AC07288988898150888BCE01829663E0B5
:1038900049890E94AC07288988898150888BCE018C
:1038A0008A9664E049890E94AC0780E090E0AAE72C
:1038B000B3E48B879C87AD87BE876B857C858D85C0
:1038C0009E8520E030E04AEF54E40E941702DC01BC
:1038D000CB018F839887A987BA876F81788589857F
:1038E0009A8520E030E040E85FE30E94710388237E
:1038F0002CF481E090E09E838D833FC06F817885BA
:1039000089859A8520E03FEF4FE757E40E94110335
:1039100018164CF56B857C858D859E8520E030E002
:1039200040E251E40E941702DC01CB01BC01CD0151
:103930000E944100DC01CB019E838D830FC088EC87
:1039400090E09C838B838B819C810197F1F79C8312
:103950008B838D819E8101979E838D838D819E8136
:10396000009769F714C06F81788589859A850E94D0
:103970004100DC01CB019E838D838D819E819A83E2
:10398000898389819A810197F1F79A83898399893B
:1039900081E08927898B81E00E949B058F858F5F5D
:1039A0008F878F85843008F458CF52CF0F931F93A1
:1039B000DF93CF93CDB7DEB7CE58D1400FB6F89492
:1039C000DEBF0FBECDBF80E06FEF0E94130A82E022
:1039D00060E041E00E94010982E061E041E00E9474
:1039E000010982E062E041E00E9401090E94D706DD
:1039F000CE0186559F4FC65CDE4F99838883CA539C
:103A0000D14086E292E0C45CDE4F99838883CC5338
:103A1000D14098E0C25CDE4F9883CE53D140C45C65
:103A2000DE4FA881B981CC53D1400C90C45CDE4FED
:103A3000E881F981CC53D1403196C45CDE4FF983E3
:103A4000E883CC53D140C65CDE4FA881B981CA530C
:103A5000D1400C92C65CDE4FE881F981CA53D14057
:103A60003196C65CDE4FF983E883CA53D140C25C0D
:103A7000DE4FF881CE53D140F150C25CDE4FF88367
:103A8000CE53D140C25CDE4F8881CE53D1408823D3
:103A900031F6CE018E549F4FC15CDE4F99838883EF
:103AA000CF53D140AEE1B2E0CF5BDE4FB983A88304
:103AB000C154D140B8E0CD5BDE4FB883C354D14090
:103AC000CF5BDE4FE881F981C154D1400080CF5BEC
:103AD000DE4F88819981C154D1400196CF5BDE4F82
:103AE00099838883C154D140C15CDE4FA881B981DC
:103AF000CF53D1400C92C15CDE4FE881F981CF53A6
:103B0000D1403196C15CDE4FF983E883CF53D14079
:103B1000CD5BDE4FF881C354D140F150CD5BDE4F19
:103B2000F883C354D140CD5BDE4F8881C354D1406C
:103B3000882331F681E00E949B058BEA90E00E9489
:103B4000650781E060E00E948E0785EB90E00E94AF
:103B50006507CE0186559F4F61E040E02FE00E944F
:103B6000AC07CE018E549F4F62E041E02FE00E94EF
:103B7000AC07FE01EB55FF4F80E090E0AAEFB4E404
:103B800080839183A283B3838E010F551F4FFE0163
:103B9000EB55FF4F608171818281938120E030E09D
:103BA0004AEF54E40E941702DC01CB01F801808344
:103BB0009183A283B383FE01EF55FF4F6081718132
:103BC0008281938120E030E040E85FE30E9471034E
:103BD000882344F4FE01E156FF4F81E090E0918399
:103BE000808364C0FE01EF55FF4F60817181828147
:103BF000938120E03FEF4FE757E40E94110318162E
:103C00000CF043C0FE01EB55FF4F60817181828152
:103C1000938120E030E040E251E40E941702DC0191
:103C2000CB018E0101561F4FBC01CD010E94410006
:103C3000DC01CB01F801918380831FC0FE01E356B4
:103C4000FF4F88EC90E091838083FE01E356FF4FA5
:103C5000808191810197F1F7FE01E356FF4F918337
:103C60008083DE01A156BF4FFE01E156FF4F8081E8
:103C70009181019711969C938E93FE01E156FF4F1F
:103C8000808191810097D1F627C08E0101561F4F88
:103C9000FE01EF55FF4F60817181828193810E9407
:103CA0004100DC01CB01F80191838083DE01A55640
:103CB000BF4FFE01E156FF4F808191818D939C9310
:103CC000FE01E556FF4F808191810197F1F7FE01DA
:103CD000E556FF4F91838083CE0186549F4FCC5B86
:103CE000DE4F99838883C454D14086E192E0CA5B59
:103CF000DE4F99838883C654D14098E0C85BDE4F7D
:103D00009883C854D140CA5BDE4FA881B981C6549C
:103D1000D1400C90CA5BDE4FE881F981C654D14096
:103D20003196CA5BDE4FF983E883C654D140CC5B41
:103D3000DE4FA881B981C454D1400C92CC5BDE4FD8
:103D4000E881F981C454D1403196CC5BDE4FF983D0
:103D5000E883C454D140C85BDE4FF881C854D140D9
:103D6000F150C85BDE4FF883C854D140C85BDE4FCA
:103D70008881C854D140882331F6CE018E539F4F9D
:103D8000C75BDE4F99838883C954D140AEE0B2E06F
:103D9000C55BDE4FB983A883CB54D140B8E0C35B89
:103DA000DE4FB883CD54D140C55BDE4FE881F98149
:103DB000CB54D1400080C55BDE4F88819981CB54C4
:103DC000D1400196C55BDE4F99838883CB54D140A7
:103DD000C75BDE4FA881B981C954D1400C92C75B43
:103DE000DE4FE881F981C954D1403196C75BDE4F7F
:103DF000F983E883C954D140C35BDE4FF881CD54C9
:103E0000D140F150C35BDE4FF883CD54D140C35B4A
:103E1000DE4F8881CD54D140882331F6CE018653C0
:103E20009F4FC25BDE4F99838883CE54D140A6E07A
:103E3000B2E0C05BDE4FB983A883C055D140B8E083
:103E4000CE5ADE4FB883C255D140C05BDE4FE88109
:103E5000F981C055D1400080C05BDE4F88819981D7
:103E6000C055D1400196C05BDE4F99838883C05511
:103E7000D140C25BDE4FA881B981CE54D1400C92B3
:103E8000C25BDE4FE881F981CE54D1403196C25BEE
:103E9000DE4FF983E883CE54D140CE5ADE4FF8810D
:103EA000C255D140F150CE5ADE4FF883C255D140B1
:103EB000CE5ADE4F8881C255D140882331F6FE01AB
:103EC000E755FF4F1082A6C181E00E949B058EEB53
:103ED00090E00E94650781E060E00E948E0789EC17
:103EE00090E00E946507CE0186559F4F61E040E05B
:103EF0002FE00E94AC07CE018E549F4F62E041E05C
:103F00002FE00E94AC07CE018E539F4F63E041E04B
:103F10002EE00E94AC07FE01E956FF4F80E090E0E2
:103F2000AAE7B3E480839183A283B3838E010D5605
:103F30001F4FFE01E956FF4F60817181828193819D
:103F400020E030E04AEF54E40E941702DC01CB018C
:103F5000F80180839183A283B383FE01ED56FF4F66
:103F6000608171818281938120E030E040E85FE3ED
:103F70000E947103882344F4FE01EF56FF4F81E055
:103F800090E09183808364C0FE01ED56FF4F608115
:103F900071818281938120E03FEF4FE757E40E94D7
:103FA000110318160CF043C0FE01E956FF4F608163
:103FB00071818281938120E030E040E251E40E94EF
:103FC0001702DC01CB018E010F561F4FBC01CD0142
:103FD0000E944100DC01CB01F801918380831FC066
:103FE000FE01E157FF4F88EC90E091838083FE0152
:103FF000E157FF4F808191810197F1F7FE01E15771
:10400000FF4F91838083DE01AF56BF4FFE01EF5615
:10401000FF4F80819181019711969C938E93FE01B1
:10402000EF56FF4F808191810097D1F627C08E0116
:104030000F561F4FFE01ED56FF4F60817181828147
:1040400093810E944100DC01CB01F80191838083C0
:10405000DE01A357BF4FFE01EF56FF4F80819181D4
:104060008D939C93FE01E357FF4F808191810197CF
:10407000F1F7FE01E357FF4F91838083CE01865411
:104080009F4F62E041E02EE00E94AC07CE018653D4
:104090009F4F63E041E02EE00E94AC07FE01E7572E
:1040A000FF4F80E090E0AAE7B3E480839183A2838E
:1040B000B3838E010B571F4FFE01E757FF4F6081FF
:1040C00071818281938120E030E04AEF54E40E94C4
:1040D0001702DC01CB01F80180839183A283B383B3
:1040E000FE01EB57FF4F608171818281938120E057
:1040F00030E040E85FE30E947103882344F4FE014E
:10410000ED57FF4F81E090E09183808364C0FE0112
:10411000EB57FF4F608171818281938120E03FEFF7
:104120004FE757E40E94110318160CF043C0FE013C
:10413000E757FF4F608171818281938120E030E0F9
:1041400040E251E40E941702DC01CB018E010D57C1
:104150001F4FBC01CD010E944100DC01CB01F801E1
:10416000918380831FC0FE01EF57FF4F88EC90E0E2
:1041700091838083FE01EF57FF4F808191810197EA
:10418000F1F7FE01EF57FF4F91838083DE01AD57BA
:10419000BF4FFE01ED57FF4F80819181019711962E
:1041A0009C938E93FE01ED57FF4F80819181009784
:1041B000D1F627C08E010D571F4FFE01EB57FF4F61
:1041C00060817181828193810E944100DC01CB0179
:1041D000F80191838083DE01A158BF4FFE01ED57A6
:1041E000FF4F808191818D939C93FE01E158FF4F99
:1041F000808191810197F1F7FE01E158FF4F918392
:104200008083DE01A755BF4FFE01E755FF4F808138
:104210008F5F8C93FE01E755FF4F8081853008F456
:1042200053CEFE01E558FF4F80E090E0AAEFB3E4E3
:1042300080839183A283B3838E0109581F4FFE01AF
:10424000E558FF4F608171818281938120E030E0E9
:104250004AEF54E40E941702DC01CB01F80180838D
:104260009183A283B383FE01E958FF4F608171817E
:104270008281938120E030E040E85FE30E94710397
:10428000882344F4FE01EB58FF4F81E090E09183D6
:10429000808364C0FE01E958FF4F60817181828193
:1042A000938120E03FEF4FE757E40E941103181677
:1042B0000CF043C0FE01E558FF4F6081718182819F
:1042C000938120E030E040E251E40E941702DC01DB
:1042D000CB018E010B581F4FBC01CD010E94410044
:1042E000DC01CB01F801918380831FC0FE01ED58F2
:1042F000FF4F88EC90E091838083FE01ED58FF4FE3
:10430000808191810197F1F7FE01ED58FF4F918374
:104310008083DE01AB58BF4FFE01EB58FF4F808119
:104320009181019711969C938E93FE01EB58FF4F5C
:10433000808191810097D1F627C08E010B581F4FC5
:10434000FE01E958FF4F60817181828193810E9453
:104350004100DC01CB01F80191838083DE01AF587D
:10436000BF4FFE01EB58FF4F808191818D939C934D
:10437000FE01EF58FF4F808191810197F1F7FE0117
:10438000EF58FF4F91838083CE018E529F4FCD5ABD
:10439000DE4F99838883C355D1408EEF91E0CB5A8D
:1043A000DE4F99838883C555D14098E0C95ADE4FC6
:1043B0009883C755D140CB5ADE4FA881B981C555E6
:1043C000D1400C90CB5ADE4FE881F981C555D140E0
:1043D0003196CB5ADE4FF983E883C555D140CD5A8B
:1043E000DE4FA881B981C355D1400C92CD5ADE4F22
:1043F000E881F981C355D1403196CD5ADE4FF9831A
:10440000E883C355D140C95ADE4FF881C755D14022
:10441000F150C95ADE4FF883C755D140C95ADE4F13
:104420008881C755D140882331F6CE0186529F4FEF
:10443000C85ADE4F99838883C855D140A6EFB1E0B2
:10444000C65ADE4FB983A883CA55D140B8E0C45AD2
:10445000DE4FB883CC55D140C65ADE4FE881F98192
:10446000CA55D1400080C65ADE4F88819981CA550D
:10447000D1400196C65ADE4F99838883CA55D140F0
:10448000C85ADE4FA881B981C855D1400C92C85A8C
:10449000DE4FE881F981C855D1403196C85ADE4FC8
:1044A000F983E883C855D140C45ADE4FF881CC5512
:1044B000D140F150C45ADE4FF883CC55D140C45A94
:1044C000DE4F8881CC55D140882331F6FE01E75577
:1044D000FF4F1082FE01E755FF4F1082F8C081E0C8
:1044E0000E949B0582ED90E00E946507FE01E75562
:1044F000FF4F9FE08081292F281BCE0186559F4FBB
:1045000061E040E00E94AC07FE01E755FF4F80816B
:10451000882F90E081709070009779F4FE01E75544
:10452000FF4F9FE08081292F281BCE018E529F4F85
:1045300062E041E00E94AC070EC0FE01E755FF4F6C
:104540009FE08081292F281BCE0186529F4F62E079
:1045500041E00E94AC07FE01E359FF4F80E090E08C
:10456000AAE7B3E480839183A283B3838E010759C2
:104570001F4FFE01E359FF4F60817181828193815A
:1045800020E030E04AEF54E40E941702DC01CB0146
:10459000F80180839183A283B383FE01E759FF4F23
:1045A000608171818281938120E030E040E85FE3A7
:1045B0000E947103882344F4FE01E959FF4F81E012
:1045C00090E09183808364C0FE01E759FF4F6081D2
:1045D00071818281938120E03FEF4FE757E40E9491
:1045E000110318160CF043C0FE01E359FF4F608120
:1045F00071818281938120E030E040E251E40E94A9
:104600001702DC01CB018E0109591F4FBC01CD01FE
:104610000E944100DC01CB01F801918380831FC01F
:10462000FE01EB59FF4F88EC90E091838083FE01FF
:10463000EB59FF4F808191810197F1F7FE01EB5912
:10464000FF4F91838083DE01A959BF4FFE01E959D5
:10465000FF4F80819181019711969C938E93FE016B
:10466000E959FF4F808191810097D1F627C08E01D3
:1046700009591F4FFE01E759FF4F60817181828107
:1046800093810E944100DC01CB01F801918380837A
:10469000DE01AD59BF4FFE01E959FF4F8081918185
:1046A0008D939C93FE01ED59FF4F8081918101977D
:1046B000F1F7FE01ED59FF4F91838083DE01A7558D
:1046C000BF4FFE01E755FF4F80818F5F8C93FE0146
:1046D000E755FF4F8081863008F401CFFE01E75592
:1046E000FF4F1082F5C081E00E949B0582ED90E0B3
:1046F0000E946507FE01E755FF4F8081282F275F45
:10470000CE0186559F4F61E040E00E94AC07FE015C
:10471000E755FF4F8081882F90E08170907000975F
:1047200071F4FE01E755FF4F8081282F275FCE01EE
:104730008E529F4F62E041E00E94AC070DC0FE0127
:10474000E755FF4F8081282F275FCE0186529F4F6C
:1047500062E041E00E94AC07FE01E15AFF4F80E0B9
:1047600090E0AAE7B3E480839183A283B3838E01B0
:10477000055A1F4FFE01E15AFF4F6081718182810E
:10478000938120E030E04AEF54E40E941702DC01FC
:10479000CB01F80180839183A283B383FE01E55AA4
:1047A000FF4F608171818281938120E030E040E899
:1047B0005FE30E947103882344F4FE01E75AFF4F30
:1047C00081E090E09183808364C0FE01E55AFF4F51
:1047D000608171818281938120E03FEF4FE757E450
:1047E0000E94110318160CF043C0FE01E15AFF4F5E
:1047F000608171818281938120E030E040E251E468
:104800000E941702DC01CB018E01075A1F4FBC0129
:10481000CD010E944100DC01CB01F801918380832E
:104820001FC0FE01E95AFF4F88EC90E0918380831E
:10483000FE01E95AFF4F808191810197F1F7FE0156
:10484000E95AFF4F91838083DE01A75ABF4FFE01D3
:10485000E75AFF4F80819181019711969C938E9327
:10486000FE01E75AFF4F808191810097D1F627C062
:104870008E01075A1F4FFE01E55AFF4F608171817B
:10488000828193810E944100DC01CB01F801918378
:104890008083DE01AB5ABF4FFE01E75AFF4F808194
:1048A00091818D939C93FE01EB5AFF4F8081918102
:1048B0000197F1F7FE01EB5AFF4F91838083DE01F0
:1048C000A755BF4FFE01E755FF4F80818F5F8C9347
:1048D000FE01E755FF4F8081873008F404CFFE01C9
:1048E000EF5AFF4F80E090E0AAEFB3E4808391831A
:1048F000A283B3838E01035B1F4FFE01EF5AFF4F6C
:10490000608171818281938120E030E04AEF54E43C
:104910000E941702DC01CB01F80180839183A283FE
:10492000B383FE01E35BFF4F6081718182819381DC
:1049300020E030E040E85FE30E947103882344F404
:10494000FE01E55BFF4F81E090E09183808364C0CE
:10495000FE01E35BFF4F608171818281938120E0E2
:104960003FEF4FE757E40E94110318160CF043C0C5
:10497000FE01EF5AFF4F608171818281938120E0B7
:1049800030E040E251E40E941702DC01CB018E01CD
:10499000055B1F4FBC01CD010E944100DC01CB0132
:1049A000F801918380831FC0FE01E75BFF4F88EC15
:1049B00090E091838083FE01E75BFF4F80819181CE
:1049C0000197F1F7FE01E75BFF4F91838083DE01E2
:1049D000A55BBF4FFE01E55BFF4F80819181019791
:1049E00011969C938E93FE01E55BFF4F8081918130
:1049F0000097D1F627C08E01055B1F4FFE01E35BD8
:104A0000FF4F60817181828193810E944100DC01AE
:104A1000CB01F80191838083DE01A95BBF4FFE01CA
:104A2000E55BFF4F808191818D939C93FE01E95B53
:104A3000FF4F808191810197F1F7FE01E95BFF4F04
:104A400091838083CE018E519F4FC35ADE4F99834D
:104A50008883CD55D1408EEE91E0C15ADE4F9983C7
:104A60008883CF55D14098E0CF59DE4F9883C15607
:104A7000D140C15ADE4FA881B981CF55D1400C90A9
:104A8000C15ADE4FE881F981CF55D1403196C15AE4
:104A9000DE4FF983E883CF55D140C35ADE4FA8815A
:104AA000B981CD55D1400C92C35ADE4FE881F981CE
:104AB000CD55D1403196C35ADE4FF983E883CD55A9
:104AC000D140CF59DE4FF881C156D140F150CF5976
:104AD000DE4FF883C156D140CF59DE4F8881C15691
:104AE000D140882331F6CE0186519F4FCE59DE4FFB
:104AF00099838883C256D140A6EEB1E0CC59DE4FEF
:104B0000B983A883C456D140B8E0CA59DE4FB883F0
:104B1000C656D140CC59DE4FE881F981C456D14008
:104B20000080CC59DE4F88819981C456D1400196CE
:104B3000CC59DE4F99838883C456D140CE59DE4F7D
:104B4000A881B981C256D1400C92CE59DE4FE8817E
:104B5000F981C256D1403196CE59DE4FF983E883B0
:104B6000C256D140CA59DE4FF881C656D140F150E5
:104B7000CA59DE4FF883C656D140CA59DE4F8881E4
:104B8000C656D140882331F6CE018E509F4FC95969
:104B9000DE4F99838883C756D140AEEDB1E0C75947
:104BA000DE4FB983A883C956D140B8E0C559DE4F5E
:104BB000B883CB56D140C759DE4FE881F981C95639
:104BC000D1400080C759DE4F88819981C956D140B4
:104BD0000196C759DE4F99838883C956D140C95978
:104BE000DE4FA881B981C756D1400C92C959DE4F1A
:104BF000E881F981C756D1403196C959DE4FF98312
:104C0000E883C756D140C559DE4FF881CB56D14015
:104C1000F150C559DE4FF883CB56D140C559DE4F10
:104C20008881CB56D140882331F6CE0186509F4FE4
:104C3000C459DE4F99838883CC56D140A6EDB1E0AC
:104C4000C259DE4FB983A883CE56D140B8E0C059CF
:104C5000DE4FB883C057D140C259DE4FE881F98199
:104C6000CE56D1400080C259DE4F88819981CE5600
:104C7000D1400196C259DE4F99838883CE56D140E8
:104C8000C459DE4FA881B981CC56D1400C92C45989
:104C9000DE4FE881F981CC56D1403196C459DE4FC0
:104CA000F983E883CC56D140C059DE4FF881C05714
:104CB000D140F150C059DE4FF883C057D140C059A0
:104CC000DE4F8881C057D140882331F6CE018E5FF8
:104CD0009E4FCF58DE4F99838883C157D140AEECA9
:104CE000B1E0CD58DE4FB983A883C357D140B8E0B7
:104CF000CB58DE4FB883C557D140CD58DE4FE88141
:104D0000F981C357D1400080CD58DE4F8881998109
:104D1000C357D1400196CD58DE4F99838883C3573E
:104D2000D140CF58DE4FA881B981C157D1400C92F4
:104D3000CF58DE4FE881F981C157D1403196CF5825
:104D4000DE4FF983E883C157D140CB58DE4FF8815D
:104D5000C557D140F150CB58DE4FF883C557D140ED
:104D6000CB58DE4F8881C557D140882331F6FE01EC
:104D7000E755FF4F1082FE01E755FF4F1082D8C064
:104D800081E00E949B058CED90E00E946507FE018A
:104D9000E755FF4F8081882F90E0817090700097D9
:104DA000E9F4FE01E755FF4F9FE08081292F281B82
:104DB000CE018E519F4F61E040E00E94AC07FE01A2
:104DC000E755FF4F9FE08081292F281BCE018E5091
:104DD0009F4F62E041E00E94AC071CC0FE01E75516
:104DE000FF4F9FE08081292F281BCE0186519F4FC6
:104DF00061E040E00E94AC07FE01E755FF4F9FE0F5
:104E00008081292F281BCE018E509F4F62E041E008
:104E10000E94AC07FE01ED5BFF4F80E090E8ABE342
:104E2000B4E480839183A283B3838E01015C1F4F1E
:104E3000FE01ED5BFF4F608171818281938120E0F3
:104E400030E04AEF54E40E941702DC01CB01F80184
:104E500080839183A283B383FE01FF966081718179
:104E60008281938120E030E040E85FE30E9471039B
:104E700088232CF481E090E09EAF8DAF46C0FE0108
:104E8000FF96608171818281938120E03FEF4FE73F
:104E900057E40E941103181664F5FE01ED5BFF4F05
:104EA000608171818281938120E030E040E251E4B1
:104EB0000E941702DC01CB01BC01CD010E94410020
:104EC000DC01CB019EAF8DAF0FC088EC90E09CAFB2
:104ED0008BAF8BAD9CAD0197F1F79CAF8BAF8DADD8
:104EE0009EAD01979EAF8DAF8DAD9EAD009769F7DA
:104EF00016C0FE01FF9660817181828193810E94BC
:104F00004100DC01CB019EAF8DAF8DAD9EAD9AAF60
:104F100089AF89AD9AAD0197F1F79AAF89AFDE01FC
:104F2000A755BF4FFE01E755FF4F80818F5F8C93E0
:104F3000FE01E755FF4F8081843008F421CFFE0148
:104F4000E755FF4F1082C1C081E00E949B058CEDA8
:104F500090E00E946507FE01E755FF4F8081882F92
:104F600090E0817090700097D9F4FE01E755FF4FF3
:104F70008081282F255FCE0186559F4F61E040E05C
:104F80000E94AC07FE01E755FF4F8081282F255F67
:104F9000CE0186509F4F62E041E00E94AC071AC0EC
:104FA000FE01E755FF4F8081282F255FCE018655F2
:104FB0009F4F61E040E00E94AC07FE01E755FF4FC4
:104FC0008081282F255FCE018E5F9E4F62E041E0F9
:104FD0000E94AC0780E090E8ABE3B4E48DAB9EABFD
:104FE000AFABB8AF6DA97EA98FA998AD20E030E036
:104FF0004AEF54E40E941702DC01CB0189AB9AAB63
:10500000ABABBCAB69A97AA98BA99CA920E030E025
:1050100040E85FE30E94710388232CF481E090E074
:1050200098AB8FA73FC069A97AA98BA99CA920E05A
:105030003FEF4FE757E40E94110318164CF56DA996
:105040007EA98FA998AD20E030E040E251E40E94B3
:105050001702DC01CB01BC01CD010E944100DC0143
:10506000CB0198AB8FA70FC088EC90E09EA78DA7CF
:105070008DA59EA50197F1F79EA78DA78FA598A94D
:10508000019798AB8FA78FA598A9009769F714C0CF
:1050900069A97AA98BA99CA90E944100DC01CB01D6
:1050A00098AB8FA78FA598A99CA78BA78BA59CA52C
:1050B0000197F1F79CA78BA7DE01A755BF4FFE0113
:1050C000E755FF4F80818F5F8C93FE01E755FF4FBF
:1050D0008081853008F438CF80E090E0AAEFB3E417
:1050E0008FA398A7A9A7BAA76FA178A589A59AA504
:1050F00020E030E04AEF54E40E941702DC01CB01CB
:105100008BA39CA3ADA3BEA36BA17CA18DA19EA1EB
:1051100020E030E040E85FE30E94710388232CF434
:1051200081E090E09AA389A33FC06BA17CA18DA1EF
:105130009EA120E03FEF4FE757E40E9411031816AD
:105140004CF56FA178A589A59AA520E030E040E252
:1051500051E40E941702DC01CB01BC01CD010E9489
:105160004100DC01CB019AA389A30FC088EC90E039
:1051700098A38F8F8F8D98A10197F1F798A38F8FA8
:1051800089A19AA101979AA389A389A19AA10097BD
:1051900069F714C06BA17CA18DA19EA10E94410062
:1051A000DC01CB019AA389A389A19AA19E8F8D8F3F
:1051B0008D8D9E8D0197F1F79E8F8D8FCE01865F2D
:1051C0009E4FCA58DE4F99838883C657D14086ECDC
:1051D00091E0C858DE4F99838883C857D14098E042
:1051E000C658DE4F9883CA57D140C858DE4FA881B1
:1051F000B981C857D1400C90C858DE4FE881F98179
:10520000C857D1403196C858DE4FF983E883C85754
:10521000D140CA58DE4FA881B981C657D1400C92FF
:10522000CA58DE4FE881F981C657D1403196CA5835
:10523000DE4FF983E883C657D140C658DE4FF88168
:10524000CA57D140F150C658DE4FF883CA57D140F3
:10525000C658DE4F8881CA57D140882331F6CE0127
:105260008E5E9E4FC558DE4F99838883CB57D140C1
:10527000AEEBB1E0C358DE4FB983A883CD57D14020
:10528000B8E0C158DE4FB883CF57D140C358DE4F86
:10529000E881F981CD57D1400080C358DE4F888125
:1052A0009981CD57D1400196C358DE4F99838883A9
:1052B000CD57D140C558DE4FA881B981CB57D140D9
:1052C0000C92C558DE4FE881F981CB57D140319619
:1052D000C558DE4FF983E883CB57D140C158DE4F24
:1052E000F881CF57D140F150C158DE4FF883CF57E6
:1052F000D140C158DE4F8881CF57D140882331F645
:10530000CE01865E9E4FC058DE4F99838883C05879
:10531000D140A6EBB1E0CE57DE4FB983A883C25887
:10532000D140B8E0CC57DE4FB883C458D140CE57F7
:10533000DE4FE881F981C258D1400080CE57DE4F60
:1053400088819981C258D1400196CE57DE4F99830A
:105350008883C258D140C058DE4FA881B981C05857
:10536000D1400C92C058DE4FE881F981C058D1403D
:105370003196C058DE4FF983E883C058D140CC57EE
:10538000DE4FF881C458D140F150CC57DE4FF8833E
:10539000C458D140CC57DE4F8881C458D1408823AF
:1053A00031F6CE018E5D9E4FCB57DE4F99838883B9
:1053B000C558D140AEEAB1E0C957DE4FB983A883E2
:1053C000C758D140B8E0C757DE4FB883C958D1405D
:1053D000C957DE4FE881F981C758D1400080C957CD
:1053E000DE4F88819981C758D1400196C957DE4F59
:1053F00099838883C758D140CB57DE4FA881B981A4
:10540000C558D1400C92CB57DE4FE881F981C55881
:10541000D1403196CB57DE4FF983E883C558D14050
:10542000C757DE4FF881C958D140F150C757DE4FFA
:10543000F883C958D140C757DE4F8881C958D14039
:10544000882331F6CE01865D9E4F28E0FC01DF0106
:10545000822F1D928A95E9F7FE01E65DFE4F8FE1EE
:105460008383CE018E5C9E4FC657DE4F998388831F
:10547000CA58D140A6EAB1E0C457DE4FB983A88329
:10548000CC58D140B8E0C257DE4FB883CE58D14097
:10549000C457DE4FE881F981CC58D1400080C45711
:1054A000DE4F88819981CC58D1400196C457DE4F98
:1054B00099838883CC58D140C657DE4FA881B981E3
:1054C000CA58D1400C92C657DE4FE881F981CA58BC
:1054D000D1403196C657DE4FF983E883CA58D14090
:1054E000C257DE4FF881CE58D140F150C257DE4F3F
:1054F000F883CE58D140C257DE4F8881CE58D14074
:10550000882331F6FE01E755FF4F1082B3C081E0DA
:105510000E949B0580E062E00E948E0788EE90E08A
:105520000E946507CE0186559F4F61E040E02FE065
:105530000E94AC07CE018E549F4F62E041E02FE005
:105540000E94AC07CE01865F9E4F63E041E020E001
:105550000E94AC07CE018E5E9E4F64E041E021E0E8
:105560000E94AC07FE01E755FF4F8081282F2E5F78
:10557000CE01865E9E4F65E041E00E94AC0780E070
:1055800090E0AAEFB3E4898F9A8FAB8FBC8F698DBF
:105590007A8D8B8D9C8D20E030E04AEF54E40E94A0
:1055A0001702DC01CB018D8B9E8BAF8BB88F6D8981
:1055B0007E898F89988D20E030E040E85FE30E948B
:1055C000710388232CF481E090E09C8B8B8B3FC08F
:1055D0006D897E898F89988D20E03FEF4FE757E4F2
:1055E0000E94110318164CF5698D7A8D8B8D9C8D58
:1055F00020E030E040E251E40E941702DC01CB01E0
:10560000BC01CD010E944100DC01CB019C8B8B8B46
:105610000FC088EC90E09A8B898B89899A890197D1
:10562000F1F79A8B898B8B899C8901979C8B8B8B4B
:105630008B899C89009769F714C06D897E898F8951
:10564000988D0E944100DC01CB019C8B8B8B8B8958
:105650009C89988B8F878F8598890197F1F7988B14
:105660008F87DE01A755BF4FFE01E755FF4F8081B1
:105670008F5F8C93FE01E755FF4F80818E3008F4D9
:1056800046CF81E00E949B05CE018E5D9E4F61E07A
:1056900041E02FE00E94AC07CE01865D9E4F62E0A4
:1056A00041E02EE00E94AC07CE018E5C9E4F63E08D
:1056B00041E02DE00E94AC07CE01865F9E4F64E082
:1056C00041E020E00E94AC07CE018E5E9E4F65E077
:1056D00041E021E00E94AC0780E090E0AAEFB4E452
:1056E0008B879C87AD87BE876B857C858D859E85E6
:1056F00020E030E04AEF54E40E941702DC01CB01C5
:105700008F839887A987BA876F81788589859A85DD
:1057100020E030E040E85FE30E94710388232CF42E
:1057200081E090E09E838D8340C06F81788589857C
:105730009A8520E03FEF4FE757E40E9411031816C7
:1057400054F56B857C858D859E8520E030E040E2B8
:1057500051E40E941702DC01CB01BC01CD010E9483
:105760004100DC01CB019E838D830FC088EC90E06B
:105770009C838B838B819C810197F1F79C838B8326
:105780008D819E8101979E838D838D819E8100975F
:1057900069F70C94F81C6F81788589859A850E9439
:1057A0004100DC01CB019E838D838D819E819A8394
:1057B000898389819A810197F1F79A8389830C946F
:1057C000F81CA1E21A2EAA1BBB1BFD010DC0AA1FCB
:1057D000BB1FEE1FFF1FA217B307E407F50720F05A
:1057E000A21BB30BE40BF50B661F771F881F991FD5
:1057F0001A9469F760957095809590959B01AC011E
:10580000BD01CF0108952F923F924F925F926F9208
:105810007F928F929F92AF92BF92CF92DF92EF9240
:10582000FF920F931F93CF93DF93CDB7DEB7CA1BC1
:10583000DB0B0FB6F894DEBF0FBECDBF09942A88EC
:10584000398848885F846E847D848C849B84AA8494
:10585000B984C884DF80EE80FD800C811B81AA8121
:10586000B981CE0FD11D0FB6F894DEBF0FBECDBFEC
:08587000ED010895F894FFCF4B
:1058780048656C6C6F2049276D0048616D6F6B73CC
:10588800686100492063616E20706C617900666F01
:105898006F7462616C6C00492063616E2072756E72
:1058A80000492063616E2064616E636500446F6E19
:1058B8002774206B696C6C206D650048656C6C6F93
:1058C8002049276D0048616D6F6B7368610049203E
:1058D80063616E20706C617900666F6F7462616CD1
:1058E8006C00492063616E2072756E004920636107
:1058F8006E2064616E636500446F6E2774206B6967
:105908006C6C206D650000000000000000001111A3
:10591800111F111111000E1111110E000000040EBB
:105928000400000000001F1F1F00000000001F1FD0
:105938001D1D1F1C1C1C070C1405060408101C0642
:1059480005140C04020104040404040A11000E11D5
:1059580011110E05061C0E1111110E140C07070C5F
:105968001404040605001C060504040C14000000B9
:10597800000E11110E000E11110E00000000070C90
:105988001404040A11001F040404040A11000E116F
:1059980011110E0404040411111111111F0000014A
:1059A8000101011F060004010101011F00000F0190
:1059B8000101011F00001111111F111111000E1119
:1059C80011110E000000040E0400000000001F1F4B
:1059D8001F00000000001F1F1D1D1F1C1C1C070CA2
:1059E8001405060408101C0605140C04020104041E
:1059F8000404040A11000E1111110E05061C0E11E3
:105A080011110E140C07070C1404040605001C06DB
:105A18000504040C14000000000E11110E000E11F4
:105A2800110E00000000070C1404040A11001F04E2
:0E5A38000404040A11000E1111110E040404DE
:00000001FF
