:100000000C942A000C943F000C943F000C943F0089
:100010000C943F000C943F000C943F000C943F0064
:100020000C943F000C943F000C943F000C943F0054
:100030000C943F000C943F000C943F000C943F0044
:100040000C943F000C943F000C943F000C943F0034
:100050000C943F0011241FBECFE5D8E0DEBFCDBF1A
:1000600010E0A0E6B0E0EAEEF6E202C005900D92E4
:10007000A43FB107D9F70E94CB0D0C9473130C94D5
:100080000000EF92FF920F931F937B018C0120E001
:1000900030E040E05FE40E94410388238CF0C80117
:1000A000B70120E030E040E05FE40E94B9010E9427
:1000B000A1039B01AC01205030404040504806C095
:1000C000C801B7010E94A1039B01AC01B901CA019B
:1000D0001F910F91FF90EF900895A0E0B0E0E3E74B
:1000E000F0E00C943C13DC012B01FA019C9192305E
:1000F00008F439C1EB018881823008F433C19430AF
:1001000069F4843009F02FC111969C91119789816F
:10011000981709F428C1ACE6B0E025C1843009F491
:1001200021C18230A9F4923009F01DC19A01AD01BC
:1001300088E0EA010990AE01E90109929E0181502F
:10014000C1F7E201898111969C918923818308C1BD
:10015000923009F407C112962D903C901397EB0151
:100160008A819B811496AD90BD90CD90DC901797BD
:10017000EC80FD800E811F819101281B390BB90194
:1001800037FF04C066277727621B730B6032710547
:100190000CF061C0121613066CF537014801062EEB
:1001A00004C096948794779467940A94D2F721E0D8
:1001B00030E040E050E004C0220F331F441F551FC1
:1001C0006A95D2F721503040404050402E213F21C7
:1001D00040235123211531054105510521F021E02E
:1001E00030E040E050E079018A01E628F72808294C
:1001F00019293CC0232BD1F1260E371E35014601AB
:10020000062E04C096948794779467940A94D2F744
:1002100021E030E040E050E004C0220F331F441FD3
:10022000551F6A95D2F721503040404050402A2156
:100230003B214C215D21211531054105510521F05E
:1002400021E030E040E050E059016A01A628B728DB
:10025000C828D9280BC0821593052CF01C01AA24AC
:10026000BB24650103C0EE24FF24870111969C91F5
:10027000D20111968C91981709F445C0992339F051
:10028000A80197012A193B094C095D0906C0A6017E
:1002900095012E193F09400B510B57FD08C01182E3
:1002A0003382228224833583468357831DC081E0B5
:1002B00081833382228288279927DC01821B930B5A
:1002C000A40BB50B84839583A683B7830DC0220F3F
:1002D000331F441F551F24833583468357838281F0
:1002E000938101979383828324813581468157814D
:1002F000DA01C9010197A109B1098F5F9F4FAF4F83
:10030000BF4328F30BC0918333822282EA0CFB1C8B
:100310000C1D1D1DE482F5820683178383E0808314
:10032000248135814681578157FF1AC0C901AA2708
:1003300097FDA095BA2F81709070A070B0705695FF
:10034000479537952795822B932BA42BB52B848328
:100350009583A683B7838281938101969383828359
:10036000DF0101C0D201CD01CDB7DEB7E2E10C94CF
:100370005813A0E2B0E0EFEBF1E00C94481369836E
:100380007A838B839C832D833E834F835887E9E058
:10039000EE2EF12CEC0EFD1ECE010196B7010E944F
:1003A000CA048E010F5E1F4FCE010596B8010E9450
:1003B000CA048A8991E089278A8BC701B801AE01F6
:1003C000475E5F4F0E946D000E94F503A096E6E035
:1003D0000C946413A0E2B0E0E0EFF1E00C94481359
:1003E00069837A838B839C832D833E834F835887D5
:1003F000F9E0EF2EF12CEC0EFD1ECE010196B701B7
:100400000E94CA048E010F5E1F4FCE010596B801EF
:100410000E94CA04C701B801AE01475E5F4F0E9447
:100420006D000E94F503A096E6E00C946413A0E230
:10043000B0E0EDE1F2E00C943C1369837A838B83A6
:100440009C832D833E834F835887CE010196BE0146
:10045000675F7F4F0E94CA04CE010596BE016F5EA2
:100460007F4F0E94CA049985923088F08989823032
:10047000C8F0943019F4823051F404C0843029F467
:10048000923081F48CE690E0C6C0923049F420E0CE
:100490009A858A89981321E02A87CE010996BBC0E4
:1004A000823049F420E09A858A89981321E02A8BCA
:1004B000CE014196B0C02D843E844F8458886D880B
:1004C0007E888F88988CEE24FF248701AA24BB2481
:1004D000650140E050E060E070E0E0E0F0E0C10184
:1004E00081709070892BE9F0E60CF71C081D191D2E
:1004F0009A01AB012A0D3B1D4C1D5D1D80E090E073
:10050000A0E0B0E0E614F7040805190520F481E046
:1005100090E0A0E0B0E0BA01A901480F591F6A1F9E
:100520007B1FAA0CBB1CCC1CDD1C97FE08C081E005
:1005300090E0A0E0B0E0A82AB92ACA2ADB2A3196C6
:10054000E032F10549F0660C771C881C991C569422
:10055000479437942794C3CFFA85EA892B893C893D
:100560008B859C85280F391F2E5F3F4F17C0CA010E
:1005700081709070892B61F016950795F794E79438
:1005800080E090E0A0E0B0E8E82AF92A0A2B1B2BD3
:1005900076956795579547952F5F3F4F77FDE7CF46
:1005A0000CC0440F551F661F771F17FD4160EE0CEE
:1005B000FF1C001F111F21503040403090E05907B0
:1005C00090E0690790E4790760F32B8F3C8FDB01A3
:1005D000CA018F779070A070B07080349105A1052A
:1005E000B10561F447FD0AC0E114F10401051105EC
:1005F00029F0405C5F4F6F4F7F4F40781A8EFE1797
:1006000011F081E08A8F4D8F5E8F6F8F78A383E02A
:10061000898FCE0149960E94F503A096E2E10C94E1
:100620005813A8E1B0E0E7E1F3E00C9448136983C4
:100630007A838B839C832D833E834F83588789E005
:10064000E82EF12CEC0EFD1ECE010196B7010E94A2
:10065000CA048E010F5E1F4FCE010596B8010E949D
:10066000CA048985823040F08989823028F0C70128
:10067000B8010E94420501C08FEF6896E6E00C9435
:100680006413A8E1B0E0E7E4F3E00C944813698355
:100690007A838B839C832D833E834F83588789E0A5
:1006A000E82EF12CEC0EFD1ECE010196B7010E9442
:1006B000CA048E010F5E1F4FCE010596B8010E943D
:1006C000CA048985823040F08989823028F0C701C8
:1006D000B8010E94420501C08FEF6896E6E00C94D5
:1006E0006413A8E1B0E0E7E7F3E00C9448136983F2
:1006F0007A838B839C832D833E834F83588789E045
:10070000E82EF12CEC0EFD1ECE010196B7010E94E1
:10071000CA048E010F5E1F4FCE010596B8010E94DC
:10072000CA048985823040F08989823028F0C70167
:10073000B8010E94420501C081E06896E6E00C9491
:100740006413ACE0B0E0E7EAF3E00C944C13698387
:100750007A838B839C83CE010196BE016B5F7F4FB2
:100760000E94CA048D81823061F1823050F1843060
:1007700021F48E81882351F12EC02F81388537FDD9
:1007800020C06E812F3131051CF06623F9F023C0A3
:100790008EE190E0821B930B29853A854B855C8521
:1007A00004C056954795379527958A95D2F76623C5
:1007B000B1F050954095309521953F4F4F4F5F4F89
:1007C0000EC020E030E040E050E009C02FEF3FEFE6
:1007D0004FEF5FE704C020E030E040E050E8B901AF
:1007E000CA012C96E2E00C946813DF92EF92FF921C
:1007F0000F931F93FC01E480F58006811781D1805F
:100800008081823048F480E090E0A0E1B0E0E82A06
:10081000F92A0A2B1B2BA5C0843009F49FC0823013
:1008200021F4EE24FF24870105C0E114F104010541
:10083000110519F4E0E0F0E096C0628173819FEF4A
:10084000623879070CF05BC022E83FEF261B370BBC
:100850002A3131052CF020E030E040E050E02AC0A1
:10086000B801A701022E04C0769567955795479564
:100870000A94D2F781E090E0A0E0B0E004C0880FD5
:10088000991FAA1FBB1F2A95D2F70197A109B10989
:100890008E219F21A023B1230097A105B10521F04E
:1008A00081E090E0A0E0B0E09A01AB01282B392B69
:1008B0004A2B5B2BDA01C9018F779070A070B07062
:1008C00080349105A105B10539F427FF09C0205CEA
:1008D0003F4F4F4F5F4F04C0215C3F4F4F4F5F4F23
:1008E000E0E0F0E02030A0E03A07A0E04A07A0E412
:1008F0005A0710F0E1E0F0E079018A0127C0603882
:10090000710564F5FB01E158FF4FD801C7018F77EE
:100910009070A070B07080349105A105B10539F4D4
:10092000E7FE0DC080E490E0A0E0B0E004C08FE3FB
:1009300090E0A0E0B0E0E80EF91E0A1F1B1F17FFB1
:1009400005C016950795F794E794319687E01695BC
:100950000795F794E7948A95D1F705C0EE24FF2414
:100960008701EFEFF0E06E2F679566276795902F70
:100970009F77D794DD24D7948E2F8695492F462BC9
:10098000582F5D29B701CA011F910F91FF90EF9079
:10099000DF900895FC01DB01408151812281622FAB
:1009A0006F7770E0221F2227221F9381892F880FE3
:1009B000822B282F30E0991F9927991F11969C931D
:1009C000119721153105A9F54115510561057105ED
:1009D00011F482E037C082E89FEF13969C938E93C8
:1009E00012979A01AB0167E0220F331F441F551F76
:1009F0006A95D1F783E08C930DC0220F331F441FFB
:100A0000551F12968D919C911397019713969C9365
:100A10008E931297203080E0380780E0480780E40A
:100A2000580758F314962D933D934D935C93179765
:100A300008952F3F310579F4411551056105710580
:100A400019F484E08C93089564FF03C081E08C93D3
:100A500012C01C9210C02F57304013963C932E9317
:100A6000129783E08C9387E0440F551F661F771F12
:100A70008A95D1F7706414964D935D936D937C9332
:100A8000179708951F93DC01FB019C91923008F4A5
:100A900047C08081823008F443C0943051F41196ED
:100AA0001C91843099F58181682F70E0611B710978
:100AB0003FC0843021F0923031F48230B9F181812D
:100AC000882389F12DC011961C9111978230F1F085
:100AD00081811817D9F412962D913C911397828138
:100AE00093818217930794F028173907BCF0149666
:100AF0008D919D910D90BC91A02D248135814681D1
:100B00005781281739074A075B0718F4112341F06A
:100B10000AC082179307A407B50740F4112319F000
:100B200061E070E005C06FEF7FEF02C060E070E051
:100B3000CB011F910895DF93CF93CDB7DEB72F97E9
:100B40000FB6F894DEBF0FBECDBF8F8782E060E0A6
:100B500040E00E945B0A82E061E040E00E945B0AA4
:100B600080E06F850E946D0B82E062E041E00E94B0
:100B70005B0A80E090E0A0E0B0E48B879C87AD87C3
:100B8000BE876B857C858D859E8520E030E04AEFB1
:100B900054E40E941702DC01CB018F839887A98758
:100BA000BA876F81788589859A8520E030E040E8B2
:100BB0005FE30E94710388232CF481E090E09E8320
:100BC0008D833FC06F81788589859A8520E03FEFCE
:100BD0004FE757E40E94110318164CF56B857C858E
:100BE0008D859E8520E030E040E251E40E941702AE
:100BF000DC01CB01BC01CD010E944100DC01CB0135
:100C00009E838D830FC088EC90E09C838B838B81C7
:100C10009C810197F1F79C838B838D819E81019745
:100C20009E838D838D819E81009769F714C06F81AB
:100C3000788589859A850E944100DC01CB019E83DD
:100C40008D838D819E819A83898389819A81019781
:100C5000F1F79A83898382E062E040E00E945B0AB8
:100C60002F960FB6F894DEBF0FBECDBFCF91DF91A8
:100C70000895DF93CF93CDB7DEB72F970FB6F894D3
:100C8000DEBF0FBECDBF8F8782E060E041E00E94F3
:100C90005B0A82E061E040E00E945B0A80E06F85D1
:100CA0000E946D0B82E062E041E00E945B0A80E0FE
:100CB00090E0A0E0B0E48B879C87AD87BE876B8512
:100CC0007C858D859E8520E030E04AEF54E40E94CB
:100CD0001702DC01CB018F839887A987BA876F81C0
:100CE000788589859A8520E030E040E85FE30E94BE
:100CF000710388232CF481E090E09E838D833FC0B4
:100D00006F81788589859A8520E03FEF4FE757E42A
:100D10000E94110318164CF56B857C858D859E8588
:100D200020E030E040E251E40E941702DC01CB01F8
:100D3000BC01CD010E944100DC01CB019E838D836B
:100D40000FC088EC90E09C838B838B819C81019702
:100D5000F1F79C838B838D819E8101979E838D8388
:100D60008D819E81009769F714C06F817885898590
:100D70009A850E944100DC01CB019E838D838D8189
:100D80009E819A83898389819A810197F1F79A8359
:100D9000898382E062E040E00E945B0A2F960FB6F2
:100DA000F894DEBF0FBECDBFCF91DF910895DF93E2
:100DB000CF93CDB7DEB72E970FB6F894DEBF0FBE38
:100DC000CDBF80E090E0A0E2B2E48B879C87AD8746
:100DD000BE876B857C858D859E8520E030E04AEF5F
:100DE00054E40E941702DC01CB018F839887A98706
:100DF000BA876F81788589859A8520E030E040E860
:100E00005FE30E94710388232CF481E090E09E83CD
:100E10008D833FC06F81788589859A8520E03FEF7B
:100E20004FE757E40E94110318164CF56B857C853B
:100E30008D859E8520E030E040E251E40E9417025B
:100E4000DC01CB01BC01CD010E944100DC01CB01E2
:100E50009E838D830FC088EC90E09C838B838B8175
:100E60009C810197F1F79C838B838D819E810197F3
:100E70009E838D838D819E81009769F714C06F8159
:100E8000788589859A850E944100DC01CB019E838B
:100E90008D838D819E819A83898389819A8101972F
:100EA000F1F79A83898388E30E949B058CE00E9476
:100EB0009B0581E00E949B052E960FB6F894DEBF3D
:100EC0000FBECDBFCF91DF910895DF93CF9300D0B8
:100ED0000F92CDB7DEB79B838A8319820EC08981BA
:100EE000282F30E08A819B81FC01E20FF31F808173
:100EF0000E94390689818F5F89838981282F30E09C
:100F00008A819B81FC01E20FF31F8081882339F7DE
:100F10000F900F900F90CF91DF910895DF93CF93B3
:100F200000D00F92CDB7DEB78A836B838A81882386
:100F300019F48B81898306C08A81813019F48B81F1
:100F4000805C8983898180680E949B050F900F9047
:100F50000F90CF91DF910895DF93CF93CDB7DEB798
:100F600027970FB6F894DEBF0FBECDBF9C838B834F
:100F70006D834E832F831A8219828D81882F90E092
:100F8000880F991F880F991F880F991F8A838A815C
:100F900080640E949B0519820EC08981282F30E051
:100FA0008B819C81FC01E20FF31F80810E94390636
:100FB00089818F5F89838981883078F38E816F8101
:100FC0000E948E078D810E94390627960FB6F894ED
:100FD000DEBF0FBECDBFCF91DF9108950F931F935A
:100FE000DF93CF93CDB7DEB7AC970FB6F894DEBFE3
:100FF0000FBECDBF6FA378A789A79AA78FA198A589
:10100000A9A5BAA589839A83AB83BC8318861F825E
:101010001E821D822DC08F81082F10E089819A8148
:10102000AB81BC812AE030E040E050E0BC01CD0162
:101030000E941A13DC01CB01282FCE010996FC0176
:10104000E00FF11F20838F818F5F8F8389819A81C9
:10105000AB81BC812AE030E040E050E0BC01CD0132
:101060000E941A13DA01C90189839A83AB83BC8376
:1010700089819A81AB81BC810097A105B10559F6A0
:101080008F8181508887ADC08885282F30E0CE01C0
:101090000996FC01E20FF31F8081282F30E03CA766
:1010A0002BA78BA59CA58430910509F465C02BA5C1
:1010B0003CA525303105E4F48BA59CA58130910534
:1010C00009F442C02BA53CA5223031052CF48BA598
:1010D0009CA5009789F17FC02BA53CA52230310546
:1010E000D9F18BA59CA58330910509F43DC073C04F
:1010F0002BA53CA52730310509F456C08BA59CA52E
:101100008830910564F42BA53CA525303105E1F12B
:101110008BA59CA58630910509F43EC05CC02BA52B
:101120003CA52830310509F447C08BA59CA5893022
:10113000910509F449C04FC08E816D810E948E07D0
:1011400080E30E94390647C08E816D810E948E0720
:1011500081E30E9439063FC08E816D810E948E0717
:1011600082E30E94390637C08E816D810E948E070E
:1011700083E30E9439062FC08E816D810E948E0705
:1011800084E30E94390627C08E816D810E948E07FC
:1011900085E30E9439061FC08E816D810E948E07F3
:1011A00086E30E94390617C08E816D810E948E07EA
:1011B00087E30E9439060FC08E816D810E948E07E1
:1011C00088E30E94390607C08E816D810E948E07D8
:1011D00089E30E9439068885815088878D818F5FD9
:1011E0008D839D818F81981708F44ECFAC960FB6F2
:1011F000F894DEBF0FBECDBFCF91DF911F910F914D
:101200000895DF93CF93CDB7DEB728970FB6F89444
:10121000DEBF0FBECDBF8A836B834C8319828B8167
:10122000883008F0F4C08C81882309F077C08A8167
:10123000282F30E038872F838F8198858130910562
:1012400059F12F813885223031052CF48F81988512
:10125000009769F060C02F8138852230310589F10F
:101260008F8198858330910509F440C054C0AAE36A
:10127000B0E0EAE3F0E08081482F8B81282F30E056
:1012800081E090E0022E02C0880F991F0A94E2F7D5
:10129000809584238C93BDC0A7E3B0E0E7E3F0E042
:1012A0008081482F8B81282F30E081E090E0022E52
:1012B00002C0880F991F0A94E2F7809584238C93CB
:1012C000A8C0A4E3B0E0E4E3F0E08081482F8B8184
:1012D000282F30E081E090E0022E02C0880F991F95
:1012E0000A94E2F7809584238C9393C0A1E3B0E045
:1012F000E1E3F0E08081482F8B81282F30E081E00E
:1013000090E0022E02C0880F991F0A94E2F78095A0
:1013100084238C937EC081E089837BC08C81813063
:1013200009F072C08A81282F30E03E832D838D81A1
:101330009E818130910549F12D813E812230310518
:101340002CF48D819E81009761F05BC02D813E81E0
:101350002230310571F18D819E8183309105E9F153
:1013600050C0AAE3B0E0EAE3F0E08081482F8B812F
:10137000282F30E081E090E0022E02C0880F991FF4
:101380000A94E2F7842B8C9344C0A7E3B0E0E7E330
:10139000F0E08081482F8B81282F30E081E090E0C1
:1013A000022E02C0880F991F0A94E2F7842B8C93B7
:1013B00030C0A4E3B0E0E4E3F0E08081482F8B810B
:1013C000282F30E081E090E0022E02C0880F991FA4
:1013D0000A94E2F7842B8C931CC0A1E3B0E0E1E314
:1013E000F0E08081482F8B81282F30E081E090E071
:1013F000022E02C0880F991F0A94E2F7842B8C9367
:1014000008C081E0898305C081E0898302C081E052
:101410008983898128960FB6F894DEBF0FBECDBFB1
:10142000CF91DF910895DF93CF9300D000D00F923A
:10143000CDB7DEB78A836B8319828A81282F30E08B
:101440003D832C838C819D8181309105D1F02C814D
:101450003D81223031052CF48C819D81009761F013
:101460001FC02C813D812230310581F08C819D810E
:101470008330910581F014C0EAE3F0E08B81808332
:1014800011C0E7E3F0E08B8180830CC0E4E3F0E07F
:101490008B81808307C0E1E3F0E08B81808302C011
:1014A00081E0898389810F900F900F900F900F90AA
:1014B000CF91DF910895DF93CF93CDB7DEB7289713
:1014C0000FB6F894DEBF0FBECDBF8A836B834C830B
:1014D00019828B81883008F0F4C08C81882309F050
:1014E00077C08A81282F30E038872F838F819885B5
:1014F0008130910559F12F813885223031052CF446
:101500008F819885009769F060C02F8138852230DF
:10151000310589F18F8198858330910509F440C0A8
:1015200054C0ABE3B0E0EBE3F0E08081482F8B8167
:10153000282F30E081E090E0022E02C0880F991F32
:101540000A94E2F7809584238C93BDC0A8E3B0E0B1
:10155000E8E3F0E08081482F8B81282F30E081E0A4
:1015600090E0022E02C0880F991F0A94E2F780953E
:1015700084238C93A8C0A5E3B0E0E5E3F0E080818C
:10158000482F8B81282F30E081E090E0022E02C0AE
:10159000880F991F0A94E2F7809584238C9393C057
:1015A000A2E3B0E0E2E3F0E08081482F8B81282FB6
:1015B00030E081E090E0022E02C0880F991F0A946B
:1015C000E2F7809584238C937EC081E089837BC081
:1015D0008C81813009F072C08A81282F30E03E83EF
:1015E0002D838D819E818130910549F12D813E8130
:1015F000223031052CF48D819E81009761F05BC013
:101600002D813E812230310571F18D819E818330A3
:101610009105E9F150C0ABE3B0E0EBE3F0E080818D
:10162000482F8B81282F30E081E090E0022E02C00D
:10163000880F991F0A94E2F7842B8C9344C0A8E387
:10164000B0E0E8E3F0E08081482F8B81282F30E084
:1016500081E090E0022E02C0880F991F0A94E2F701
:10166000842B8C9330C0A5E3B0E0E5E3F0E080810B
:10167000482F8B81282F30E081E090E0022E02C0BD
:10168000880F991F0A94E2F7842B8C931CC0A2E365
:10169000B0E0E2E3F0E08081482F8B81282F30E03A
:1016A00081E090E0022E02C0880F991F0A94E2F7B1
:1016B000842B8C9308C081E0898305C081E08983F5
:1016C00002C081E08983898128960FB6F894DEBF35
:1016D0000FBECDBFCF91DF910895DF93CF9300D0A0
:1016E00000D00F92CDB7DEB78A836B8319828A81CF
:1016F000282F30E03D832C838C819D8181309105A2
:10170000D1F02C813D81223031052CF48C819D81DA
:10171000009761F01FC02C813D812230310581F09E
:101720008C819D818330910581F014C0EBE3F0E062
:101730008B81808311C0E8E3F0E08B8180830CC053
:10174000E5E3F0E08B81808307C0E2E3F0E08B818A
:10175000808302C081E0898389810F900F900F9070
:101760000F900F90CF91DF910895DF93CF93CDB776
:10177000DEB727970FB6F894DEBF0FBECDBF8A83C2
:101780006B835D834C8319828C819D81009709F462
:1017900088C08B81883008F084C08A81282F30E08F
:1017A0003F832E834E815F814130510579F18E81D7
:1017B0009F818230910534F42E813F8121153105BE
:1017C00069F06CC04E815F8142305105B9F18E8164
:1017D0009F818330910509F449C060C0A9E3B0E05E
:1017E000E9E3F0E08081282F30E08B81882F90E0C2
:1017F000A90102C0440F551F8A95E2F7CA01817002
:101800008C938C91EC81FD8180834DC0A6E3B0E088
:10181000E6E3F0E08081282F30E08B81882F90E094
:10182000A90102C0440F551F8A95E2F7CA018170D1
:101830008C938C91EC81FD81808335C0A3E3B0E073
:10184000E3E3F0E08081282F30E08B81882F90E067
:10185000A90102C0440F551F8A95E2F7CA018170A1
:101860008C938C91EC81FD8180831DC0A0E3B0E05E
:10187000E0E3F0E08081282F30E08B81882F90E03A
:10188000A90102C0440F551F8A95E2F7CA01817071
:101890008C938C91EC81FD81808305C081E08983EC
:1018A00002C081E08983898127960FB6F894DEBF54
:1018B0000FBECDBFCF91DF910895DF93CF93CDB70A
:1018C000DEB7C554D0400FB6F894DEBF0FBECDBF13
:1018D000CE0142969BAB8AABECE8F0E0FDABECAB03
:1018E000F8E0FEABECA9FDA900808CA99DA90196AA
:1018F0009DAB8CABEAA9FBA900828AA99BA90196A2
:101900009BAB8AAB9EA991509EABEEA9EE2351F7FB
:10191000CE014A9698AF8FABE4E8F0E0FAAFE9AFBA
:10192000F8E0FBAFE9ADFAAD008089AD9AAD019664
:101930009AAF89AFEFA9F8AD00828FA998AD019653
:1019400098AF8FAB9BAD91509BAFEBADEE2351F7B2
:10195000CE0182969DAF8CAFECE7F0E0FFAFEEAF2B
:10196000F8E02196FFAF2197EEADFFAD00808EAD80
:101970009FAD01969FAF8EAFECADFDAD00828CADFB
:101980009DAD01969DAF8CAF21969FAD2197915053
:1019900021969FAF21972196EFAD2197EE2321F756
:1019A000CE018A9623969FAF8EAF2397E4E7F0E0AF
:1019B0002596FFAFEEAF2597F8E02696FFAF269766
:1019C0002596EEADFFAD2597008025968EAD9FAD97
:1019D0002597019625969FAF8EAF25972396EEAD5E
:1019E000FFAD2397008223968EAD9FAD239701967E
:1019F00023969FAF8EAF239726969FAD2697915043
:101A000026969FAF26972696EFAD2697EE23C1F632
:101A100080E06FEF0E94130A82E060E041E00E94E4
:101A2000010982E061E041E00E94010982E062E098
:101A300041E00E9401090E94D7061F86198A8FE0A3
:101A4000888BA4C0288988898150888BCE014296D2
:101A500061E049890E94AC07288988898150888B78
:101A6000CE014A9662E049890E94AC07288988899C
:101A70008150888BCE01829663E049890E94AC0731
:101A8000288988898150888BCE018A9664E04989AB
:101A90000E94AC0780E090E0AAE7B3E48B879C87C4
:101AA000AD87BE876B857C858D859E8520E030E087
:101AB0004AEF54E40E941702DC01CB018F83988720
:101AC000A987BA876F81788589859A8520E030E07B
:101AD00040E85FE30E94710388232CF481E090E0EA
:101AE0009E838D833FC06F81788589859A8520E0AC
:101AF0003FEF4FE757E40E94110318164CF56B8532
:101B00007C858D859E8520E030E040E251E40E9496
:101B10001702DC01CB01BC01CD010E944100DC01B8
:101B2000CB019E838D830FC088EC90E09C838B83D8
:101B30008B819C810197F1F79C838B838D819E81A2
:101B400001979E838D838D819E81009769F714C0D4
:101B50006F81788589859A850E944100DC01CB01DF
:101B60009E838D838D819E819A83898389819A81C9
:101B70000197F1F79A838983998981E08927898B75
:101B800081E00E949B058F858F5F8F878F858430D2
:101B900008F458CF52CFDF93CF93CDB7DEB7C95BF0
:101BA000D0400FB6F894DEBF0FBECDBFCE014E962B
:101BB000C258DF4F99838883CE57D040ECEEF0E0D7
:101BC000C058DF4FF983E883C058D040F8E0CE57C3
:101BD000DF4FF883C258D040C058DF4FE881F98109
:101BE000C058D0400080C058DF4F88819981C058CC
:101BF000D0400196C058DF4F99838883C058D040A9
:101C0000C258DF4FE881F981CE57D0400082C258D8
:101C1000DF4F88819981CE57D0400196C258DF4F5F
:101C200099838883CE57D040CE57DF4F9881C258D2
:101C3000D0409150CE57DF4F9883C258D040CE57F6
:101C4000DF4FE881C258D040EE2331F6CE018696B0
:101C5000CD57DF4F99838883C358D040E4EEF0E03E
:101C6000CB57DF4FF983E883C558D040F8E0C95718
:101C7000DF4FF883C758D040CB57DF4FE881F98159
:101C8000C558D0400080CB57DF4F88819981C55817
:101C9000D0400196CB57DF4F99838883C558D040F9
:101CA000CD57DF4FE881F981C358D0400082CD572E
:101CB000DF4F88819981C358D0400196CD57DF4FBF
:101CC00099838883C358D040C957DF4F9881C7583C
:101CD000D0409150C957DF4F9883C758D040C9575B
:101CE000DF4FE881C758D040EE2331F6CE018E9603
:101CF000C857DF4F99838883C858D040ECEDF0E097
:101D0000C657DF4FF983E883CA58D040F8E0C4577C
:101D1000DF4FF883CC58D040C657DF4FE881F981B8
:101D2000CA58D0400080C657DF4F88819981CA5871
:101D3000D0400196C657DF4F99838883CA58D04058
:101D4000C857DF4FE881F981C858D0400082C85792
:101D5000DF4F88819981C858D0400196C857DF4F1E
:101D600099838883C858D040C457DF4F9881CC5896
:101D7000D0409150C457DF4F9883CC58D040C457BF
:101D8000DF4FE881CC58D040EE2331F6CE01C69625
:101D9000C357DF4F99838883CD58D040E4EDF0E0FE
:101DA000C157DF4FF983E883CF58D040F8E0CF56D2
:101DB000DF4FF883C159D040C157DF4FE881F98127
:101DC000CF58D0400080C157DF4F88819981CF58CC
:101DD000D0400196C157DF4F99838883CF58D040B8
:101DE000C357DF4FE881F981CD58D0400082C357F7
:101DF000DF4F88819981CD58D0400196C357DF4F7E
:101E000099838883CD58D040CF56DF4F9881C159F0
:101E1000D0409150CF56DF4F9883C159D040CF5614
:101E2000DF4FE881C159D040EE2331F6CE01CE9686
:101E3000CE56DF4F99838883C259D040ECECF0E056
:101E4000CC56DF4FF983E883C459D040F8E0CA5636
:101E5000DF4FF883C659D040CC56DF4FE881F98177
:101E6000C459D0400080CC56DF4F88819981C45935
:101E7000D0400196CC56DF4F99838883C459D04017
:101E8000CE56DF4FE881F981C259D0400082CE564C
:101E9000DF4F88819981C259D0400196CE56DF4FDD
:101EA00099838883C259D040CA56DF4F9881C6595A
:101EB000D0409150CA56DF4F9883C659D040CA5679
:101EC000DF4FE881C659D040EE2331F6CE018A5B60
:101ED0009F4FC956DF4F99838883C759D04084EC00
:101EE00090E0C756DF4F99838883C959D04098E066
:101EF000C556DF4F9883CB59D040C756DF4FE88196
:101F0000F981C959D0400080C756DF4F8881998137
:101F1000C959D0400196C756DF4F99838883C95964
:101F2000D040C956DF4FE881F981C759D0400082BF
:101F3000C956DF4F88819981C759D0400196C9564B
:101F4000DF4F99838883C759D040C556DF4F9881AA
:101F5000CB59D0409150C556DF4F9883CB59D040D4
:101F6000C556DF4FE881CB59D040EE2331F6CE0184
:101F7000825B9F4FC456DF4F99838883CC59D040F2
:101F80008CEB90E0C256DF4F99838883CE59D040C6
:101F900098E0C056DF4F9883C05AD040C256DF4FFA
:101FA000E881F981CE59D0400080C256DF4F888148
:101FB0009981CE59D0400196C256DF4F99838883CC
:101FC000CE59D040C456DF4FE881F981CC59D0407A
:101FD0000082C456DF4F88819981CC59D040019648
:101FE000C456DF4F99838883CC59D040C056DF4F09
:101FF0009881C05AD0409150C056DF4F9883C05A44
:10200000D040C056DF4FE881C05AD040EE2331F6B1
:10201000CE018A5A9F4FCF55DF4F99838883C15A8B
:10202000D04084EB90E0CD55DF4F99838883C35A2D
:10203000D04098E0CB55DF4F9883C55AD040CD555E
:10204000DF4FE881F981C35AD0400080CD55DF4F82
:1020500088819981C35AD0400196CD55DF4F99832D
:102060008883C35AD040CF55DF4FE881F981C15AE8
:10207000D0400082CF55DF4F88819981C15AD0402E
:102080000196CF55DF4F99838883C15AD040CB55F5
:10209000DF4F9881C55AD0409150CB55DF4F988380
:1020A000C55AD040CB55DF4FE881C55AD040EE230A
:1020B00031F6CE01825A9F4FCA55DF4F99838883EC
:1020C000C65AD0408CEA90E0C855DF4F9983888388
:1020D000C85AD04098E0C655DF4F9883CA5AD040BE
:1020E000C855DF4FE881F981C85AD0400080C855F3
:1020F000DF4F88819981C85AD0400196C855DF4F7B
:1021000099838883C85AD040CA55DF4FE881F98146
:10211000C65AD0400082CA55DF4F88819981C65A7D
:10212000D0400196CA55DF4F99838883C65AD04064
:10213000C655DF4F9881CA5AD0409150C655DF4FDF
:102140009883CA5AD040C655DF4FE881CA5AD0405A
:10215000EE2331F6CE018A599F4FC555DF4F998343
:102160008883CB5AD04084EA90E0C355DF4F9983EF
:102170008883CD5AD04098E0C155DF4F9883CF5A1D
:10218000D040C355DF4FE881F981CD5AD04000805F
:10219000C355DF4F88819981CD5AD0400196C355F0
:1021A000DF4F99838883CD5AD040C555DF4FE881F2
:1021B000F981CB5AD0400082C555DF4F8881998183
:1021C000CB5AD0400196C555DF4F99838883CB5AAF
:1021D000D040C155DF4F9881CF5AD0409150C15562
:1021E000DF4F9883CF5AD040C155DF4FE881CF5A97
:1021F000D040EE2331F6CE0182599F4FC055DF4FBC
:1022000099838883C05BD0408CE990E0CE54DF4F47
:1022100099838883C25BD04098E0CC54DF4F988389
:10222000C45BD040CE54DF4FE881F981C25BD0401F
:102230000080CE54DF4F88819981C25BD0400196E7
:10224000CE54DF4F99838883C25BD040C055DF4FA7
:10225000E881F981C05BD0400082C055DF4F8881A2
:102260009981C05BD0400196C055DF4F9983888328
:10227000C05BD040CC54DF4F9881C45BD0409150BC
:10228000CC54DF4F9883C45BD040CC54DF4FE881FF
:10229000C45BD040EE2331F6CE018A589F4FCB5419
:1022A000DF4F99838883C55BD04084E990E0C954AF
:1022B000DF4F99838883C75BD04098E0C754DF4FD6
:1022C0009883C95BD040C954DF4FE881F981C75B6F
:1022D000D0400080C954DF4F88819981C75BD040CE
:1022E0000196C954DF4F99838883C75BD040CB5494
:1022F000DF4FE881F981C55BD0400082CB54DF4FCE
:1023000088819981C55BD0400196CB54DF4F99837A
:102310008883C55BD040C754DF4F9881C95BD040EC
:102320009150C754DF4F9883C95BD040C754DF4FEB
:10233000E881C95BD040EE2331F680E06FEF0E9468
:10234000130A82E060E041E00E94010982E061E05E
:1023500041E00E94010982E062E041E00E9401093F
:102360000E94D7061D8E1D8EB0C081E00E949B0585
:1023700080E690E00E9465078D8D882F90E0817047
:1023800090700097B9F49FE08D8D292F281BCE0106
:102390008A5A9F4F61E040E00E94AC079FE08D8D1C
:1023A000292F281BCE018A599F4F62E041E00E94ED
:1023B000AC0716C09FE08D8D292F281BCE01825AB5
:1023C0009F4F61E040E00E94AC079FE08D8D292F78
:1023D000281BCE018A599F4F62E041E00E94AC0762
:1023E00080E090E8ABE3B4E4898F9A8FAB8FBC8F29
:1023F000698D7A8D8B8D9C8D20E030E04AEF54E41E
:102400000E941702DC01CB018D8B9E8BAF8BB88FA6
:102410006D897E898F89988D20E030E040E85FE308
:102420000E94710388232CF481E090E09C8B8B8BBD
:102430003FC06D897E898F89988D20E03FEF4FE7FF
:1024400057E40E94110318164CF5698D7A8D8B8D17
:102450009C8D20E030E040E251E40E941702DC0154
:10246000CB01BC01CD010E944100DC01CB019C8B62
:102470008B8B0FC088EC90E09A8B898B89899A8925
:102480000197F1F79A8B898B8B899C8901979C8B9B
:102490008B8B8B899C89009769F714C06D897E8925
:1024A0008F89988D0E944100DC01CB019C8B8B8B26
:1024B0008B899C89988B8F878F8598890197F1F7F5
:1024C000988B8F878D8D8F5F8D8F8D8D843008F4E5
:1024D0004CCF1D8EAAC081E00E949B0580E690E053
:1024E0000E9465078D8D882F90E081709070009715
:1024F000A1F48D8D282F255FCE014E9661E040E03E
:102500000E94AC078D8D282F255FCE0182599F4FE9
:1025100062E041E00E94AC0713C08D8D282F255F3B
:10252000CE014E9661E040E00E94AC078D8D282FD1
:10253000255FCE018A589F4F62E041E00E94AC07C0
:1025400080E090E8ABE3B4E48B879C87AD87BE87DF
:102550006B857C858D859E8520E030E04AEF54E4D4
:102560000E941702DC01CB018F839887A987BA8765
:102570006F81788589859A8520E030E040E85FE3C7
:102580000E94710388232CF481E090E09E838D8368
:102590003FC06F81788589859A8520E03FEF4FE7BE
:1025A00057E40E94110318164CF56B857C858D85C8
:1025B0009E8520E030E040E251E40E941702DC01F9
:1025C000CB01BC01CD010E944100DC01CB019E8307
:1025D0008D830FC088EC90E09C838B838B819C81E2
:1025E0000197F1F79C838B838D819E8101979E8358
:1025F0008D838D819E81009769F714C06F817885E6
:1026000089859A850E944100DC01CB019E838D83E0
:102610008D819E819A83898389819A810197F1F7BF
:102620009A8389838D8D8F5F8D8F8D8D853008F492
:1026300052CFFFCFA1E21A2EAA1BBB1BFD010DC07A
:10264000AA1FBB1FEE1FFF1FA217B307E407F50762
:1026500020F0A21BB30BE40BF50B661F771F881F3E
:10266000991F1A9469F760957095809590959B01D4
:10267000AC01BD01CF0108952F923F924F925F921E
:102680006F927F928F929F92AF92BF92CF92DF9282
:10269000EF92FF920F931F93CF93DF93CDB7DEB7E7
:1026A000CA1BDB0B0FB6F894DEBF0FBECDBF09947B
:1026B0002A88398848885F846E847D848C849B84D2
:1026C000AA84B984C884DF80EE80FD800C811B81E0
:1026D000AA81B981CE0FD11D0FB6F894DEBF0FBE0F
:0A26E000CDBFED010895F894FFCF7F
:1026EA00492063616E2064616E636500000000002A
:1026FA00000000000411111111111F000001010155
:10270A00011F060004010101011F00000F01010160
:10271A00011F0000070C1405060408101C06051406
:10272A000C04020104040404040A11000E1111111C
:10273A000E05061C0E1111110E140C07070C1404B9
:10274A00040605001C060504040C14000000000E13
:10275A0011110E000E11110E00000000070C1404D6
:10276A00040A11001F040404040A11000E111111B5
:04277A000E04040441
:00000001FF
