:100000000C942A000C943F000C943F000C943F0089
:100010000C943F000C943F000C943F000C943F0064
:100020000C943F000C943F000C943F000C943F0054
:100030000C943F000C943F000C943F000C943F0044
:100040000C943F000C943F000C943F000C943F0034
:100050000C943F0011241FBECFE5D8E0DEBFCDBF1A
:1000600010E0A0E6B0E0E0E5F9E002C005900D92F6
:10007000AA36B107D9F70E947D040C94A6040C940B
:100080000000DF93CF93CDB7DEB728970FB6F89473
:10009000DEBF0FBECDBF8A836B834C8319828B81F9
:1000A000883008F0F4C08C81882309F077C08A81F9
:1000B000282F30E038872F838F81988581309105F4
:1000C00059F12F813885223031052CF48F819885A4
:1000D000009769F060C02F8138852230310589F1A1
:1000E0008F8198858330910509F440C054C0AAE3FC
:1000F000B0E0EAE3F0E08081482F8B81282F30E0E8
:1001000081E090E0022E02C0880F991F0A94E2F766
:10011000809584238C93BDC0A7E3B0E0E7E3F0E0D3
:100120008081482F8B81282F30E081E090E0022EE3
:1001300002C0880F991F0A94E2F7809584238C935C
:10014000A8C0A4E3B0E0E4E3F0E08081482F8B8115
:10015000282F30E081E090E0022E02C0880F991F26
:100160000A94E2F7809584238C9393C0A1E3B0E0D6
:10017000E1E3F0E08081482F8B81282F30E081E09F
:1001800090E0022E02C0880F991F0A94E2F7809532
:1001900084238C937EC081E089837BC08C818130F5
:1001A00009F072C08A81282F30E03E832D838D8133
:1001B0009E818130910549F12D813E8122303105AA
:1001C0002CF48D819E81009761F05BC02D813E8172
:1001D0002230310571F18D819E8183309105E9F1E5
:1001E00050C0AAE3B0E0EAE3F0E08081482F8B81C1
:1001F000282F30E081E090E0022E02C0880F991F86
:100200000A94E2F7842B8C9344C0A7E3B0E0E7E3C1
:10021000F0E08081482F8B81282F30E081E090E052
:10022000022E02C0880F991F0A94E2F7842B8C9348
:1002300030C0A4E3B0E0E4E3F0E08081482F8B819C
:10024000282F30E081E090E0022E02C0880F991F35
:100250000A94E2F7842B8C931CC0A1E3B0E0E1E3A5
:10026000F0E08081482F8B81282F30E081E090E002
:10027000022E02C0880F991F0A94E2F7842B8C93F8
:1002800008C081E0898305C081E0898302C081E0E4
:100290008983898128960FB6F894DEBF0FBECDBF43
:1002A000CF91DF910895DF93CF9300D000D00F92CC
:1002B000CDB7DEB78A836B8319828A81282F30E01D
:1002C0003D832C838C819D8181309105D1F02C81DF
:1002D0003D81223031052CF48C819D81009761F0A5
:1002E0001FC02C813D812230310581F08C819D81A0
:1002F0008330910581F014C0EAE3F0E08B818083C4
:1003000011C0E7E3F0E08B8180830CC0E4E3F0E010
:100310008B81808307C0E1E3F0E08B81808302C0A2
:1003200081E0898389810F900F900F900F900F903B
:10033000CF91DF910895DF93CF93CDB7DEB72897A4
:100340000FB6F894DEBF0FBECDBF8A836B834C839C
:1003500019828B81883008F0F4C08C81882309F0E1
:1003600077C08A81282F30E038872F838F81988546
:100370008130910559F12F813885223031052CF4D7
:100380008F819885009769F060C02F813885223071
:10039000310589F18F8198858330910509F440C03A
:1003A00054C0ABE3B0E0EBE3F0E08081482F8B81F9
:1003B000282F30E081E090E0022E02C0880F991FC4
:1003C0000A94E2F7809584238C93BDC0A8E3B0E043
:1003D000E8E3F0E08081482F8B81282F30E081E036
:1003E00090E0022E02C0880F991F0A94E2F78095D0
:1003F00084238C93A8C0A5E3B0E0E5E3F0E080811E
:10040000482F8B81282F30E081E090E0022E02C03F
:10041000880F991F0A94E2F7809584238C9393C0E8
:10042000A2E3B0E0E2E3F0E08081482F8B81282F47
:1004300030E081E090E0022E02C0880F991F0A94FC
:10044000E2F7809584238C937EC081E089837BC012
:100450008C81813009F072C08A81282F30E03E8380
:100460002D838D819E818130910549F12D813E81C1
:10047000223031052CF48D819E81009761F05BC0A4
:100480002D813E812230310571F18D819E81833035
:100490009105E9F150C0ABE3B0E0EBE3F0E080811F
:1004A000482F8B81282F30E081E090E0022E02C09F
:1004B000880F991F0A94E2F7842B8C9344C0A8E319
:1004C000B0E0E8E3F0E08081482F8B81282F30E016
:1004D00081E090E0022E02C0880F991F0A94E2F793
:1004E000842B8C9330C0A5E3B0E0E5E3F0E080819D
:1004F000482F8B81282F30E081E090E0022E02C04F
:10050000880F991F0A94E2F7842B8C931CC0A2E3F6
:10051000B0E0E2E3F0E08081482F8B81282F30E0CB
:1005200081E090E0022E02C0880F991F0A94E2F742
:10053000842B8C9308C081E0898305C081E0898386
:1005400002C081E08983898128960FB6F894DEBFC6
:100550000FBECDBFCF91DF910895DF93CF9300D031
:1005600000D00F92CDB7DEB78A836B8319828A8160
:10057000282F30E03D832C838C819D818130910533
:10058000D1F02C813D81223031052CF48C819D816C
:10059000009761F01FC02C813D812230310581F030
:1005A0008C819D818330910581F014C0EBE3F0E0F4
:1005B0008B81808311C0E8E3F0E08B8180830CC0E5
:1005C000E5E3F0E08B81808307C0E2E3F0E08B811C
:1005D000808302C081E0898389810F900F900F9002
:1005E0000F900F90CF91DF910895DF93CF93CDB708
:1005F000DEB727970FB6F894DEBF0FBECDBF8A8354
:100600006B835D834C8319828C819D81009709F4F3
:1006100088C08B81883008F084C08A81282F30E020
:100620003F832E834E815F814130510579F18E8168
:100630009F818230910534F42E813F81211531054F
:1006400069F06CC04E815F8142305105B9F18E81F5
:100650009F818330910509F449C060C0A9E3B0E0EF
:10066000E9E3F0E08081282F30E08B81882F90E053
:10067000A90102C0440F551F8A95E2F7CA01817093
:100680008C938C91EC81FD8180834DC0A6E3B0E01A
:10069000E6E3F0E08081282F30E08B81882F90E026
:1006A000A90102C0440F551F8A95E2F7CA01817063
:1006B0008C938C91EC81FD81808335C0A3E3B0E005
:1006C000E3E3F0E08081282F30E08B81882F90E0F9
:1006D000A90102C0440F551F8A95E2F7CA01817033
:1006E0008C938C91EC81FD8180831DC0A0E3B0E0F0
:1006F000E0E3F0E08081282F30E08B81882F90E0CC
:10070000A90102C0440F551F8A95E2F7CA01817002
:100710008C938C91EC81FD81808305C081E089837D
:1007200002C081E08983898127960FB6F894DEBFE5
:100730000FBECDBFCF91DF910895DF93CF93CDB79B
:10074000DEB763970FB6F894DEBF0FBECDBF8C87C0
:100750007E876D871982CE010296988B8F87E0E69F
:10076000F0E0FA8BE98BFAE0FB8BE989FA890080EB
:1007700089899A8901969A8B898BEF85F8890082FD
:100780008F8598890196988B8F879B8991509B8B39
:10079000EB89EE2351F7ED85FE8583818130E9F405
:1007A000ED85FE858181ED85FE859281692F41E091
:1007B0000E949B01ED85FE8540818C85282F30E0CD
:1007C000CE010296FC01E20FF31F8081982F9095D5
:1007D000842F692F0E94AD0222C0ED85FE858381A2
:1007E0008823D9F4ED85FE858181ED85FE85928192
:1007F000692F40E00E949B01ED85FE8540818C853C
:10080000282F30E0CE010296FC01E20FF31F908109
:10081000842F692F0E94AD0202C081E08983898103
:1008200063960FB6F894DEBF0FBECDBFCF91DF91B8
:100830000895DF93CF9300D00F92CDB7DEB79B839F
:100840008A831982EA81FB818381813059F4EA81AC
:10085000FB818181EA81FB819281692F41E00E94C5
:100860009B0112C0EA81FB818381882359F4EA81CC
:10087000FB818181EA81FB819281692F40E00E94A6
:100880009B0102C081E0898389810F900F900F90B6
:10089000CF91DF910895DF93CF9300D00F92CDB722
:1008A000DEB79B838A831982EA81FB818381813051
:1008B00059F4EA81FB818181EA81FB819281692F70
:1008C00040E00E949B0112C0EA81FB818381882362
:1008D00059F4EA81FB818181EA81FB819281692F50
:1008E00041E00E949B0102C081E0898389810F90D1
:1008F0000F900F90CF91DF910895DF93CF9300D0A9
:10090000CDB7DEB7E981FA811382E981FA811082DD
:10091000E981FA8182E08183E981FA811282E981A9
:10092000FA8180816FEF0E945301E981FA81818110
:10093000E981FA819281692F41E00E944100298179
:100940003A8189E0B9010E949D03FFCFF894FFCF5F
:0A0950003F065B4F666D7D077F6F69
:00000001FF
